{
	"data": {
		"bytecode": {
			"linkReferences": {},
			"object": "60806040523480156200001157600080fd5b5060405162001d7038038062001d708339810160408190526200003491620001ec565b81620000426000826200006a565b50600780546001600160a01b0319166001600160a01b03929092169190911790555062000223565b6200007682826200007a565b5050565b620000918282620000bd60201b62000f841760201c565b6000828152600160209081526040909120620000b8918390620010086200015d821b17901c565b505050565b6000828152602081815260408083206001600160a01b038516845290915290205460ff1662000076576000828152602081815260408083206001600160a01b03851684529091529020805460ff19166001179055620001193390565b6001600160a01b0316816001600160a01b0316837f2f8788117e7eff1d82e926ec794901d17c78024a50270940304540a733656f0d60405160405180910390a45050565b600062000174836001600160a01b0384166200017d565b90505b92915050565b6000818152600183016020526040812054620001c65750815460018181018455600084815260208082209093018490558454848252828601909352604090209190915562000177565b50600062000177565b80516001600160a01b0381168114620001e757600080fd5b919050565b60008060408385031215620001ff578182fd5b6200020a83620001cf565b91506200021a60208401620001cf565b90509250929050565b611b3d80620002336000396000f3fe608060405234801561001057600080fd5b50600436106101c45760003560e01c80638c8f735f116100f9578063b96c18e611610097578063d547741f11610071578063d547741f146103e3578063dadd0a57146103f6578063df393f321461040b578063f3052d261461041e57600080fd5b8063b96c18e6146103aa578063c7eb4522146103bd578063ca15c873146103d057600080fd5b806391d14854116100d357806391d1485414610369578063a217fddf1461037c578063a7f1f76814610384578063adee9abd1461039757600080fd5b80638c8f735f146103305780638cc62ef7146103435780639010d07c1461035657600080fd5b8063365a86fc11610166578063500507691161014057806350050769146102c157806352f5d5d0146102d45780637470e999146102fd578063781cc5001461031057600080fd5b8063365a86fc146102795780633ccfd60b146102a457806348b6912e146102ac57600080fd5b80631a70b681116101a25780631a70b6811461021b578063248a9ca3146102305780632f2ff15d1461025357806336568abe1461026657600080fd5b806301ffc9a7146101c9578063087d9208146101f157806314c44e0914610204575b600080fd5b6101dc6101d736600461187c565b610431565b60405190151581526020015b60405180910390f35b6101dc6101ff366004611721565b61045c565b61020d60065481565b6040519081526020016101e8565b61022e610229366004611814565b610476565b005b61020d61023e366004611814565b60009081526020819052604090206001015490565b61022e61026136600461182c565b610550565b61022e61027436600461182c565b61057b565b60075461028c906001600160a01b031681565b6040516001600160a01b0390911681526020016101e8565b61022e6105f5565b61020d600080516020611ae883398151915281565b61022e6102cf366004611814565b6107e9565b61020d6102e2366004611721565b6001600160a01b031660009081526005602052604090205490565b61022e61030b366004611721565b610830565b61032361031e366004611814565b61084b565b6040516101e89190611931565b61022e61033e366004611759565b610865565b61022e610351366004611814565b6109b6565b61028c61036436600461185b565b6109ff565b6101dc61037736600461182c565b610a1e565b61020d600081565b61022e610392366004611721565b610a47565b61022e6103a5366004611721565b610a5f565b61022e6103b8366004611759565b610b74565b61022e6103cb366004611721565b610cc5565b61020d6103de366004611814565b610d1e565b61022e6103f136600461182c565b610d35565b6103fe610d5b565b6040516101e8919061197e565b61022e610419366004611784565b610d6c565b61020d61042c366004611814565b610f2f565b60006001600160e01b03198216635a05180f60e01b148061045657506104568261101d565b92915050565b6000610456600080516020611ae883398151915283610a1e565b610481600033611052565b80806104c55760405162461bcd60e51b815260206004820152600e60248201526d456d7074792063617465676f727960901b60448201526064015b60405180910390fd5b6104d06002836110b6565b156105045760405182907f8c3cc6db7257756a56f305e6bb5179562913ff53a2a0f5bfc8025bad3764e5d790600090a25050565b60405162461bcd60e51b815260206004820152601860248201527f43617465676f727920616c72656164792070726573656e74000000000000000060448201526064016104bc565b5050565b60008281526020819052604090206001015461056c8133611052565b61057683836110c2565b505050565b6001600160a01b03811633146105eb5760405162461bcd60e51b815260206004820152602f60248201527f416363657373436f6e74726f6c3a2063616e206f6e6c792072656e6f756e636560448201526e103937b632b9903337b91039b2b63360891b60648201526084016104bc565b61054c82826110e4565b610600600033611052565b600754604080518082018252600d81526c151bdad95b90dbdb9d1c9858dd609a1b60208201529051630110ceef60e21b81526000926001600160a01b0316916304433bbc9161065291906004016119b6565b60206040518083038186803b15801561066a57600080fd5b505afa15801561067e573d6000803e3d6000fd5b505050506040513d601f19601f820116820180604052508101906106a2919061173d565b6040516370a0823160e01b81523060048201529091506000906001600160a01b038316906370a082319060240160206040518083038186803b1580156106e757600080fd5b505afa1580156106fb573d6000803e3d6000fd5b505050506040513d601f19601f8201168201806040525081019061071f91906118a4565b9050801561054c5760405163a9059cbb60e01b8152336004820152602481018290526001600160a01b0383169063a9059cbb90604401602060405180830381600087803b15801561076f57600080fd5b505af1158015610783573d6000803e3d6000fd5b505050506040513d601f19601f820116820180604052508101906107a791906117f4565b6107b057600080fd5b60405181815233907f7fcf532c15f0a6db0bd6d0e038bea71d30d808c7d98cb3bf7268a95bf5081b659060200160405180910390a25050565b6107f4600033611052565b60068190556040518181527ffd29c2cd5dc77cf2bad34e3b80ec2592a7c16d32869ccaee99f95af250db954a906020015b60405180910390a150565b610848600080516020611ae883398151915282610550565b50565b600081815260046020526040902060609061045690611106565b61087d600080516020611ae883398151915233611052565b816001600160a01b0381166108a45760405162461bcd60e51b81526004016104bc906119e9565b816108b0600282611113565b6108f25760405162461bcd60e51b815260206004820152601360248201527210d85d1959dbdc9e481a5b995e1a5cdd195b9d606a1b60448201526064016104bc565b6001600160a01b038416600090815260056020526040902054806109545760405162461bcd60e51b815260206004820152601960248201527810dbdb1b1958dd1a5bdb881b9bdd081c9959da5cdd195c9959603a1b60448201526064016104bc565b600081815260046020526040902061096c908661112b565b506109778585611140565b8381866001600160a01b03167f08037606a802935674e38f6d260e692ac650293484fb37a6d6777586cf53ddb660405160405180910390a45050505050565b6109c1600033611052565b6109cc600282611175565b156108485760405181907f279e7fce070acef40c1b799f915ce1c5045d2579b3d37cd2c320f21ebc77fdda90600090a250565b6000828152600160205260408120610a179083611181565b9392505050565b6000918252602082815260408084206001600160a01b0393909316845291905290205460ff1690565b610848600080516020611ae883398151915282610d35565b610a77600080516020611ae883398151915233611052565b806001600160a01b038116610a9e5760405162461bcd60e51b81526004016104bc906119e9565b6001600160a01b03821660009081526005602052604090205480610b005760405162461bcd60e51b815260206004820152601960248201527810dbdb1b1958dd1a5bdb881b9bdd081c9959da5cdd195c9959603a1b60448201526064016104bc565b6001600160a01b038316600090815260056020908152604080832083905583835260049091529020610b32908461112b565b506040516001600160a01b03841681527f6ea5cb15af73bb540519a6184200ec40f1fe6983f2dc3745b6a1ac3e9f2956c59060200160405180910390a1505050565b610b8c600080516020611ae883398151915233611052565b816001600160a01b038116610bb35760405162461bcd60e51b81526004016104bc906119e9565b81610bbf600282611113565b610c015760405162461bcd60e51b815260206004820152601360248201527210d85d1959dbdc9e481a5b995e1a5cdd195b9d606a1b60448201526064016104bc565b6001600160a01b03841660009081526005602052604090205415610c675760405162461bcd60e51b815260206004820152601d60248201527f436f6c6c656374696f6e20616c7265616479207265676973746572656400000060448201526064016104bc565b60065415610c7757610c7761118d565b610c818484611140565b6040516001600160a01b038516815283907f35096804c56ccc2a3dad59368c53070c0d587e223f8b2c354238a88790d501879060200160405180910390a250505050565b610cd0600033611052565b600780546001600160a01b0319166001600160a01b0383169081179091556040519081527f5cf8983a7feff383c053eeeaf62ade56853e2448e03ff99357ce8b2f85135c1690602001610825565b6000818152600160205260408120610456906112c5565b600082815260208190526040902060010154610d518133611052565b61057683836110e4565b6060610d6760026112cf565b905090565b610d77600033611052565b60008167ffffffffffffffff811115610da057634e487b7160e01b600052604160045260246000fd5b604051908082528060200260200182016040528015610dc9578160200160208202803683370190505b5090506000805b83811015610ef157848482818110610df857634e487b7160e01b600052603260045260246000fd5b9050602002013560001415610e405760405162461bcd60e51b815260206004820152600e60248201526d456d7074792063617465676f727960901b60448201526064016104bc565b610e7a858583818110610e6357634e487b7160e01b600052603260045260246000fd5b9050602002013560026110b690919063ffffffff16565b15610edf57848482818110610e9f57634e487b7160e01b600052603260045260246000fd5b90506020020135838381518110610ec657634e487b7160e01b600052603260045260246000fd5b6020908102919091010152610edc600183611a0c565b91505b80610ee981611aa1565b915050610dd0565b507f45f6cced881f2d2f0ca76a0bb88f56a6b41c88fcd5cdbeb2aed354a72b536f9382604051610f21919061197e565b60405180910390a150505050565b6000610f3b60026112c5565b8210610f795760405162461bcd60e51b815260206004820152600d60248201526c092dcecc2d8d2c840d2dcc8caf609b1b60448201526064016104bc565b610456600283611181565b610f8e8282610a1e565b61054c576000828152602081815260408083206001600160a01b03851684529091529020805460ff19166001179055610fc43390565b6001600160a01b0316816001600160a01b0316837f2f8788117e7eff1d82e926ec794901d17c78024a50270940304540a733656f0d60405160405180910390a45050565b6000610a17836001600160a01b0384166112da565b60006001600160e01b03198216637965db0b60e01b148061045657506301ffc9a760e01b6001600160e01b0319831614610456565b61105c8282610a1e565b61054c57611074816001600160a01b03166014611329565b61107f836020611329565b6040516020016110909291906118bc565b60408051601f198184030181529082905262461bcd60e51b82526104bc916004016119b6565b6000610a1783836112da565b6110cc8282610f84565b60008281526001602052604090206105769082611008565b6110ee828261150b565b6000828152600160205260409020610576908261112b565b60606000610a1783611570565b60008181526001830160205260408120541515610a17565b6000610a17836001600160a01b0384166115cc565b60008181526004602052604090206111589083611008565b506001600160a01b03909116600090815260056020526040902055565b6000610a1783836115cc565b6000610a1783836116e9565b600754604080518082018252600d81526c151bdad95b90dbdb9d1c9858dd609a1b60208201529051630110ceef60e21b81526000926001600160a01b0316916304433bbc916111df91906004016119b6565b60206040518083038186803b1580156111f757600080fd5b505afa15801561120b573d6000803e3d6000fd5b505050506040513d601f19601f8201168201806040525081019061122f919061173d565b6006546040516323b872dd60e01b815233600482015230602482015260448101919091529091506001600160a01b038216906323b872dd90606401602060405180830381600087803b15801561128457600080fd5b505af1158015611298573d6000803e3d6000fd5b505050506040513d601f19601f820116820180604052508101906112bc91906117f4565b61084857600080fd5b6000610456825490565b606061045682611570565b600081815260018301602052604081205461132157508154600181810184556000848152602080822090930184905584548482528286019093526040902091909155610456565b506000610456565b60606000611338836002611a24565b611343906002611a0c565b67ffffffffffffffff81111561136957634e487b7160e01b600052604160045260246000fd5b6040519080825280601f01601f191660200182016040528015611393576020820181803683370190505b509050600360fc1b816000815181106113bc57634e487b7160e01b600052603260045260246000fd5b60200101906001600160f81b031916908160001a905350600f60fb1b816001815181106113f957634e487b7160e01b600052603260045260246000fd5b60200101906001600160f81b031916908160001a905350600061141d846002611a24565b611428906001611a0c565b90505b60018111156114bc576f181899199a1a9b1b9c1cb0b131b232b360811b85600f166010811061146a57634e487b7160e01b600052603260045260246000fd5b1a60f81b82828151811061148e57634e487b7160e01b600052603260045260246000fd5b60200101906001600160f81b031916908160001a90535060049490941c936114b581611a8a565b905061142b565b508315610a175760405162461bcd60e51b815260206004820181905260248201527f537472696e67733a20686578206c656e67746820696e73756666696369656e7460448201526064016104bc565b6115158282610a1e565b1561054c576000828152602081815260408083206001600160a01b0385168085529252808320805460ff1916905551339285917ff6391f5c32d9c69d2a47ea670b442974b53935d1edc7fd64eb21e047a839171b9190a45050565b6060816000018054806020026020016040519081016040528092919081815260200182805480156115c057602002820191906000526020600020905b8154815260200190600101908083116115ac575b50505050509050919050565b600081815260018301602052604081205480156116df5760006115f0600183611a43565b855490915060009061160490600190611a43565b905081811461168557600086600001828154811061163257634e487b7160e01b600052603260045260246000fd5b906000526020600020015490508087600001848154811061166357634e487b7160e01b600052603260045260246000fd5b6000918252602080832090910192909255918252600188019052604090208390555b85548690806116a457634e487b7160e01b600052603160045260246000fd5b600190038181906000526020600020016000905590558560010160008681526020019081526020016000206000905560019350505050610456565b6000915050610456565b600082600001828154811061170e57634e487b7160e01b600052603260045260246000fd5b9060005260206000200154905092915050565b600060208284031215611732578081fd5b8135610a1781611ad2565b60006020828403121561174e578081fd5b8151610a1781611ad2565b6000806040838503121561176b578081fd5b823561177681611ad2565b946020939093013593505050565b60008060208385031215611796578182fd5b823567ffffffffffffffff808211156117ad578384fd5b818501915085601f8301126117c0578384fd5b8135818111156117ce578485fd5b8660208260051b85010111156117e2578485fd5b60209290920196919550909350505050565b600060208284031215611805578081fd5b81518015158114610a17578182fd5b600060208284031215611825578081fd5b5035919050565b6000806040838503121561183e578182fd5b82359150602083013561185081611ad2565b809150509250929050565b6000806040838503121561186d578182fd5b50508035926020909101359150565b60006020828403121561188d578081fd5b81356001600160e01b031981168114610a17578182fd5b6000602082840312156118b5578081fd5b5051919050565b7f416363657373436f6e74726f6c3a206163636f756e74200000000000000000008152600083516118f4816017850160208801611a5a565b7001034b99036b4b9b9b4b733903937b6329607d1b6017918401918201528351611925816028840160208801611a5a565b01602801949350505050565b6020808252825182820181905260009190848201906040850190845b818110156119725783516001600160a01b03168352928401929184019160010161194d565b50909695505050505050565b6020808252825182820181905260009190848201906040850190845b818110156119725783518352928401929184019160010161199a565b60208152600082518060208401526119d5816040850160208701611a5a565b601f01601f19169190910160400192915050565b60208082526009908201526804164647265737320360bc1b604082015260600190565b60008219821115611a1f57611a1f611abc565b500190565b6000816000190483118215151615611a3e57611a3e611abc565b500290565b600082821015611a5557611a55611abc565b500390565b60005b83811015611a75578181015183820152602001611a5d565b83811115611a84576000848401525b50505050565b600081611a9957611a99611abc565b506000190190565b6000600019821415611ab557611ab5611abc565b5060010190565b634e487b7160e01b600052601160045260246000fd5b6001600160a01b038116811461084857600080fdfeeaf39ab5d24e063c014ac6aded04bf322deeabad6437fa75fd10fdaab73448a4a2646970667358221220d8c2b331e06e5ed8526923c4eab254fc8c2faf8a09269c594a3bafddc1eaa8e064736f6c63430008040033",
			"opcodes": "PUSH1 0x80 PUSH1 0x40 MSTORE CALLVALUE DUP1 ISZERO PUSH3 0x11 JUMPI PUSH1 0x0 DUP1 REVERT JUMPDEST POP PUSH1 0x40 MLOAD PUSH3 0x1D70 CODESIZE SUB DUP1 PUSH3 0x1D70 DUP4 CODECOPY DUP2 ADD PUSH1 0x40 DUP2 SWAP1 MSTORE PUSH3 0x34 SWAP2 PUSH3 0x1EC JUMP JUMPDEST DUP2 PUSH3 0x42 PUSH1 0x0 DUP3 PUSH3 0x6A JUMP JUMPDEST POP PUSH1 0x7 DUP1 SLOAD PUSH1 0x1 PUSH1 0x1 PUSH1 0xA0 SHL SUB NOT AND PUSH1 0x1 PUSH1 0x1 PUSH1 0xA0 SHL SUB SWAP3 SWAP1 SWAP3 AND SWAP2 SWAP1 SWAP2 OR SWAP1 SSTORE POP PUSH3 0x223 JUMP JUMPDEST PUSH3 0x76 DUP3 DUP3 PUSH3 0x7A JUMP JUMPDEST POP POP JUMP JUMPDEST PUSH3 0x91 DUP3 DUP3 PUSH3 0xBD PUSH1 0x20 SHL PUSH3 0xF84 OR PUSH1 0x20 SHR JUMP JUMPDEST PUSH1 0x0 DUP3 DUP2 MSTORE PUSH1 0x1 PUSH1 0x20 SWAP1 DUP2 MSTORE PUSH1 0x40 SWAP1 SWAP2 KECCAK256 PUSH3 0xB8 SWAP2 DUP4 SWAP1 PUSH3 0x1008 PUSH3 0x15D DUP3 SHL OR SWAP1 SHR JUMP JUMPDEST POP POP POP JUMP JUMPDEST PUSH1 0x0 DUP3 DUP2 MSTORE PUSH1 0x20 DUP2 DUP2 MSTORE PUSH1 0x40 DUP1 DUP4 KECCAK256 PUSH1 0x1 PUSH1 0x1 PUSH1 0xA0 SHL SUB DUP6 AND DUP5 MSTORE SWAP1 SWAP2 MSTORE SWAP1 KECCAK256 SLOAD PUSH1 0xFF AND PUSH3 0x76 JUMPI PUSH1 0x0 DUP3 DUP2 MSTORE PUSH1 0x20 DUP2 DUP2 MSTORE PUSH1 0x40 DUP1 DUP4 KECCAK256 PUSH1 0x1 PUSH1 0x1 PUSH1 0xA0 SHL SUB DUP6 AND DUP5 MSTORE SWAP1 SWAP2 MSTORE SWAP1 KECCAK256 DUP1 SLOAD PUSH1 0xFF NOT AND PUSH1 0x1 OR SWAP1 SSTORE PUSH3 0x119 CALLER SWAP1 JUMP JUMPDEST PUSH1 0x1 PUSH1 0x1 PUSH1 0xA0 SHL SUB AND DUP2 PUSH1 0x1 PUSH1 0x1 PUSH1 0xA0 SHL SUB AND DUP4 PUSH32 0x2F8788117E7EFF1D82E926EC794901D17C78024A50270940304540A733656F0D PUSH1 0x40 MLOAD PUSH1 0x40 MLOAD DUP1 SWAP2 SUB SWAP1 LOG4 POP POP JUMP JUMPDEST PUSH1 0x0 PUSH3 0x174 DUP4 PUSH1 0x1 PUSH1 0x1 PUSH1 0xA0 SHL SUB DUP5 AND PUSH3 0x17D JUMP JUMPDEST SWAP1 POP JUMPDEST SWAP3 SWAP2 POP POP JUMP JUMPDEST PUSH1 0x0 DUP2 DUP2 MSTORE PUSH1 0x1 DUP4 ADD PUSH1 0x20 MSTORE PUSH1 0x40 DUP2 KECCAK256 SLOAD PUSH3 0x1C6 JUMPI POP DUP2 SLOAD PUSH1 0x1 DUP2 DUP2 ADD DUP5 SSTORE PUSH1 0x0 DUP5 DUP2 MSTORE PUSH1 0x20 DUP1 DUP3 KECCAK256 SWAP1 SWAP4 ADD DUP5 SWAP1 SSTORE DUP5 SLOAD DUP5 DUP3 MSTORE DUP3 DUP7 ADD SWAP1 SWAP4 MSTORE PUSH1 0x40 SWAP1 KECCAK256 SWAP2 SWAP1 SWAP2 SSTORE PUSH3 0x177 JUMP JUMPDEST POP PUSH1 0x0 PUSH3 0x177 JUMP JUMPDEST DUP1 MLOAD PUSH1 0x1 PUSH1 0x1 PUSH1 0xA0 SHL SUB DUP2 AND DUP2 EQ PUSH3 0x1E7 JUMPI PUSH1 0x0 DUP1 REVERT JUMPDEST SWAP2 SWAP1 POP JUMP JUMPDEST PUSH1 0x0 DUP1 PUSH1 0x40 DUP4 DUP6 SUB SLT ISZERO PUSH3 0x1FF JUMPI DUP2 DUP3 REVERT JUMPDEST PUSH3 0x20A DUP4 PUSH3 0x1CF JUMP JUMPDEST SWAP2 POP PUSH3 0x21A PUSH1 0x20 DUP5 ADD PUSH3 0x1CF JUMP JUMPDEST SWAP1 POP SWAP3 POP SWAP3 SWAP1 POP JUMP JUMPDEST PUSH2 0x1B3D DUP1 PUSH3 0x233 PUSH1 0x0 CODECOPY PUSH1 0x0 RETURN INVALID PUSH1 0x80 PUSH1 0x40 MSTORE CALLVALUE DUP1 ISZERO PUSH2 0x10 JUMPI PUSH1 0x0 DUP1 REVERT JUMPDEST POP PUSH1 0x4 CALLDATASIZE LT PUSH2 0x1C4 JUMPI PUSH1 0x0 CALLDATALOAD PUSH1 0xE0 SHR DUP1 PUSH4 0x8C8F735F GT PUSH2 0xF9 JUMPI DUP1 PUSH4 0xB96C18E6 GT PUSH2 0x97 JUMPI DUP1 PUSH4 0xD547741F GT PUSH2 0x71 JUMPI DUP1 PUSH4 0xD547741F EQ PUSH2 0x3E3 JUMPI DUP1 PUSH4 0xDADD0A57 EQ PUSH2 0x3F6 JUMPI DUP1 PUSH4 0xDF393F32 EQ PUSH2 0x40B JUMPI DUP1 PUSH4 0xF3052D26 EQ PUSH2 0x41E JUMPI PUSH1 0x0 DUP1 REVERT JUMPDEST DUP1 PUSH4 0xB96C18E6 EQ PUSH2 0x3AA JUMPI DUP1 PUSH4 0xC7EB4522 EQ PUSH2 0x3BD JUMPI DUP1 PUSH4 0xCA15C873 EQ PUSH2 0x3D0 JUMPI PUSH1 0x0 DUP1 REVERT JUMPDEST DUP1 PUSH4 0x91D14854 GT PUSH2 0xD3 JUMPI DUP1 PUSH4 0x91D14854 EQ PUSH2 0x369 JUMPI DUP1 PUSH4 0xA217FDDF EQ PUSH2 0x37C JUMPI DUP1 PUSH4 0xA7F1F768 EQ PUSH2 0x384 JUMPI DUP1 PUSH4 0xADEE9ABD EQ PUSH2 0x397 JUMPI PUSH1 0x0 DUP1 REVERT JUMPDEST DUP1 PUSH4 0x8C8F735F EQ PUSH2 0x330 JUMPI DUP1 PUSH4 0x8CC62EF7 EQ PUSH2 0x343 JUMPI DUP1 PUSH4 0x9010D07C EQ PUSH2 0x356 JUMPI PUSH1 0x0 DUP1 REVERT JUMPDEST DUP1 PUSH4 0x365A86FC GT PUSH2 0x166 JUMPI DUP1 PUSH4 0x50050769 GT PUSH2 0x140 JUMPI DUP1 PUSH4 0x50050769 EQ PUSH2 0x2C1 JUMPI DUP1 PUSH4 0x52F5D5D0 EQ PUSH2 0x2D4 JUMPI DUP1 PUSH4 0x7470E999 EQ PUSH2 0x2FD JUMPI DUP1 PUSH4 0x781CC500 EQ PUSH2 0x310 JUMPI PUSH1 0x0 DUP1 REVERT JUMPDEST DUP1 PUSH4 0x365A86FC EQ PUSH2 0x279 JUMPI DUP1 PUSH4 0x3CCFD60B EQ PUSH2 0x2A4 JUMPI DUP1 PUSH4 0x48B6912E EQ PUSH2 0x2AC JUMPI PUSH1 0x0 DUP1 REVERT JUMPDEST DUP1 PUSH4 0x1A70B681 GT PUSH2 0x1A2 JUMPI DUP1 PUSH4 0x1A70B681 EQ PUSH2 0x21B JUMPI DUP1 PUSH4 0x248A9CA3 EQ PUSH2 0x230 JUMPI DUP1 PUSH4 0x2F2FF15D EQ PUSH2 0x253 JUMPI DUP1 PUSH4 0x36568ABE EQ PUSH2 0x266 JUMPI PUSH1 0x0 DUP1 REVERT JUMPDEST DUP1 PUSH4 0x1FFC9A7 EQ PUSH2 0x1C9 JUMPI DUP1 PUSH4 0x87D9208 EQ PUSH2 0x1F1 JUMPI DUP1 PUSH4 0x14C44E09 EQ PUSH2 0x204 JUMPI JUMPDEST PUSH1 0x0 DUP1 REVERT JUMPDEST PUSH2 0x1DC PUSH2 0x1D7 CALLDATASIZE PUSH1 0x4 PUSH2 0x187C JUMP JUMPDEST PUSH2 0x431 JUMP JUMPDEST PUSH1 0x40 MLOAD SWAP1 ISZERO ISZERO DUP2 MSTORE PUSH1 0x20 ADD JUMPDEST PUSH1 0x40 MLOAD DUP1 SWAP2 SUB SWAP1 RETURN JUMPDEST PUSH2 0x1DC PUSH2 0x1FF CALLDATASIZE PUSH1 0x4 PUSH2 0x1721 JUMP JUMPDEST PUSH2 0x45C JUMP JUMPDEST PUSH2 0x20D PUSH1 0x6 SLOAD DUP2 JUMP JUMPDEST PUSH1 0x40 MLOAD SWAP1 DUP2 MSTORE PUSH1 0x20 ADD PUSH2 0x1E8 JUMP JUMPDEST PUSH2 0x22E PUSH2 0x229 CALLDATASIZE PUSH1 0x4 PUSH2 0x1814 JUMP JUMPDEST PUSH2 0x476 JUMP JUMPDEST STOP JUMPDEST PUSH2 0x20D PUSH2 0x23E CALLDATASIZE PUSH1 0x4 PUSH2 0x1814 JUMP JUMPDEST PUSH1 0x0 SWAP1 DUP2 MSTORE PUSH1 0x20 DUP2 SWAP1 MSTORE PUSH1 0x40 SWAP1 KECCAK256 PUSH1 0x1 ADD SLOAD SWAP1 JUMP JUMPDEST PUSH2 0x22E PUSH2 0x261 CALLDATASIZE PUSH1 0x4 PUSH2 0x182C JUMP JUMPDEST PUSH2 0x550 JUMP JUMPDEST PUSH2 0x22E PUSH2 0x274 CALLDATASIZE PUSH1 0x4 PUSH2 0x182C JUMP JUMPDEST PUSH2 0x57B JUMP JUMPDEST PUSH1 0x7 SLOAD PUSH2 0x28C SWAP1 PUSH1 0x1 PUSH1 0x1 PUSH1 0xA0 SHL SUB AND DUP2 JUMP JUMPDEST PUSH1 0x40 MLOAD PUSH1 0x1 PUSH1 0x1 PUSH1 0xA0 SHL SUB SWAP1 SWAP2 AND DUP2 MSTORE PUSH1 0x20 ADD PUSH2 0x1E8 JUMP JUMPDEST PUSH2 0x22E PUSH2 0x5F5 JUMP JUMPDEST PUSH2 0x20D PUSH1 0x0 DUP1 MLOAD PUSH1 0x20 PUSH2 0x1AE8 DUP4 CODECOPY DUP2 MLOAD SWAP2 MSTORE DUP2 JUMP JUMPDEST PUSH2 0x22E PUSH2 0x2CF CALLDATASIZE PUSH1 0x4 PUSH2 0x1814 JUMP JUMPDEST PUSH2 0x7E9 JUMP JUMPDEST PUSH2 0x20D PUSH2 0x2E2 CALLDATASIZE PUSH1 0x4 PUSH2 0x1721 JUMP JUMPDEST PUSH1 0x1 PUSH1 0x1 PUSH1 0xA0 SHL SUB AND PUSH1 0x0 SWAP1 DUP2 MSTORE PUSH1 0x5 PUSH1 0x20 MSTORE PUSH1 0x40 SWAP1 KECCAK256 SLOAD SWAP1 JUMP JUMPDEST PUSH2 0x22E PUSH2 0x30B CALLDATASIZE PUSH1 0x4 PUSH2 0x1721 JUMP JUMPDEST PUSH2 0x830 JUMP JUMPDEST PUSH2 0x323 PUSH2 0x31E CALLDATASIZE PUSH1 0x4 PUSH2 0x1814 JUMP JUMPDEST PUSH2 0x84B JUMP JUMPDEST PUSH1 0x40 MLOAD PUSH2 0x1E8 SWAP2 SWAP1 PUSH2 0x1931 JUMP JUMPDEST PUSH2 0x22E PUSH2 0x33E CALLDATASIZE PUSH1 0x4 PUSH2 0x1759 JUMP JUMPDEST PUSH2 0x865 JUMP JUMPDEST PUSH2 0x22E PUSH2 0x351 CALLDATASIZE PUSH1 0x4 PUSH2 0x1814 JUMP JUMPDEST PUSH2 0x9B6 JUMP JUMPDEST PUSH2 0x28C PUSH2 0x364 CALLDATASIZE PUSH1 0x4 PUSH2 0x185B JUMP JUMPDEST PUSH2 0x9FF JUMP JUMPDEST PUSH2 0x1DC PUSH2 0x377 CALLDATASIZE PUSH1 0x4 PUSH2 0x182C JUMP JUMPDEST PUSH2 0xA1E JUMP JUMPDEST PUSH2 0x20D PUSH1 0x0 DUP2 JUMP JUMPDEST PUSH2 0x22E PUSH2 0x392 CALLDATASIZE PUSH1 0x4 PUSH2 0x1721 JUMP JUMPDEST PUSH2 0xA47 JUMP JUMPDEST PUSH2 0x22E PUSH2 0x3A5 CALLDATASIZE PUSH1 0x4 PUSH2 0x1721 JUMP JUMPDEST PUSH2 0xA5F JUMP JUMPDEST PUSH2 0x22E PUSH2 0x3B8 CALLDATASIZE PUSH1 0x4 PUSH2 0x1759 JUMP JUMPDEST PUSH2 0xB74 JUMP JUMPDEST PUSH2 0x22E PUSH2 0x3CB CALLDATASIZE PUSH1 0x4 PUSH2 0x1721 JUMP JUMPDEST PUSH2 0xCC5 JUMP JUMPDEST PUSH2 0x20D PUSH2 0x3DE CALLDATASIZE PUSH1 0x4 PUSH2 0x1814 JUMP JUMPDEST PUSH2 0xD1E JUMP JUMPDEST PUSH2 0x22E PUSH2 0x3F1 CALLDATASIZE PUSH1 0x4 PUSH2 0x182C JUMP JUMPDEST PUSH2 0xD35 JUMP JUMPDEST PUSH2 0x3FE PUSH2 0xD5B JUMP JUMPDEST PUSH1 0x40 MLOAD PUSH2 0x1E8 SWAP2 SWAP1 PUSH2 0x197E JUMP JUMPDEST PUSH2 0x22E PUSH2 0x419 CALLDATASIZE PUSH1 0x4 PUSH2 0x1784 JUMP JUMPDEST PUSH2 0xD6C JUMP JUMPDEST PUSH2 0x20D PUSH2 0x42C CALLDATASIZE PUSH1 0x4 PUSH2 0x1814 JUMP JUMPDEST PUSH2 0xF2F JUMP JUMPDEST PUSH1 0x0 PUSH1 0x1 PUSH1 0x1 PUSH1 0xE0 SHL SUB NOT DUP3 AND PUSH4 0x5A05180F PUSH1 0xE0 SHL EQ DUP1 PUSH2 0x456 JUMPI POP PUSH2 0x456 DUP3 PUSH2 0x101D JUMP JUMPDEST SWAP3 SWAP2 POP POP JUMP JUMPDEST PUSH1 0x0 PUSH2 0x456 PUSH1 0x0 DUP1 MLOAD PUSH1 0x20 PUSH2 0x1AE8 DUP4 CODECOPY DUP2 MLOAD SWAP2 MSTORE DUP4 PUSH2 0xA1E JUMP JUMPDEST PUSH2 0x481 PUSH1 0x0 CALLER PUSH2 0x1052 JUMP JUMPDEST DUP1 DUP1 PUSH2 0x4C5 JUMPI PUSH1 0x40 MLOAD PUSH3 0x461BCD PUSH1 0xE5 SHL DUP2 MSTORE PUSH1 0x20 PUSH1 0x4 DUP3 ADD MSTORE PUSH1 0xE PUSH1 0x24 DUP3 ADD MSTORE PUSH14 0x456D7074792063617465676F7279 PUSH1 0x90 SHL PUSH1 0x44 DUP3 ADD MSTORE PUSH1 0x64 ADD JUMPDEST PUSH1 0x40 MLOAD DUP1 SWAP2 SUB SWAP1 REVERT JUMPDEST PUSH2 0x4D0 PUSH1 0x2 DUP4 PUSH2 0x10B6 JUMP JUMPDEST ISZERO PUSH2 0x504 JUMPI PUSH1 0x40 MLOAD DUP3 SWAP1 PUSH32 0x8C3CC6DB7257756A56F305E6BB5179562913FF53A2A0F5BFC8025BAD3764E5D7 SWAP1 PUSH1 0x0 SWAP1 LOG2 POP POP JUMP JUMPDEST PUSH1 0x40 MLOAD PUSH3 0x461BCD PUSH1 0xE5 SHL DUP2 MSTORE PUSH1 0x20 PUSH1 0x4 DUP3 ADD MSTORE PUSH1 0x18 PUSH1 0x24 DUP3 ADD MSTORE PUSH32 0x43617465676F727920616C72656164792070726573656E740000000000000000 PUSH1 0x44 DUP3 ADD MSTORE PUSH1 0x64 ADD PUSH2 0x4BC JUMP JUMPDEST POP POP JUMP JUMPDEST PUSH1 0x0 DUP3 DUP2 MSTORE PUSH1 0x20 DUP2 SWAP1 MSTORE PUSH1 0x40 SWAP1 KECCAK256 PUSH1 0x1 ADD SLOAD PUSH2 0x56C DUP2 CALLER PUSH2 0x1052 JUMP JUMPDEST PUSH2 0x576 DUP4 DUP4 PUSH2 0x10C2 JUMP JUMPDEST POP POP POP JUMP JUMPDEST PUSH1 0x1 PUSH1 0x1 PUSH1 0xA0 SHL SUB DUP2 AND CALLER EQ PUSH2 0x5EB JUMPI PUSH1 0x40 MLOAD PUSH3 0x461BCD PUSH1 0xE5 SHL DUP2 MSTORE PUSH1 0x20 PUSH1 0x4 DUP3 ADD MSTORE PUSH1 0x2F PUSH1 0x24 DUP3 ADD MSTORE PUSH32 0x416363657373436F6E74726F6C3A2063616E206F6E6C792072656E6F756E6365 PUSH1 0x44 DUP3 ADD MSTORE PUSH15 0x103937B632B9903337B91039B2B633 PUSH1 0x89 SHL PUSH1 0x64 DUP3 ADD MSTORE PUSH1 0x84 ADD PUSH2 0x4BC JUMP JUMPDEST PUSH2 0x54C DUP3 DUP3 PUSH2 0x10E4 JUMP JUMPDEST PUSH2 0x600 PUSH1 0x0 CALLER PUSH2 0x1052 JUMP JUMPDEST PUSH1 0x7 SLOAD PUSH1 0x40 DUP1 MLOAD DUP1 DUP3 ADD DUP3 MSTORE PUSH1 0xD DUP2 MSTORE PUSH13 0x151BDAD95B90DBDB9D1C9858DD PUSH1 0x9A SHL PUSH1 0x20 DUP3 ADD MSTORE SWAP1 MLOAD PUSH4 0x110CEEF PUSH1 0xE2 SHL DUP2 MSTORE PUSH1 0x0 SWAP3 PUSH1 0x1 PUSH1 0x1 PUSH1 0xA0 SHL SUB AND SWAP2 PUSH4 0x4433BBC SWAP2 PUSH2 0x652 SWAP2 SWAP1 PUSH1 0x4 ADD PUSH2 0x19B6 JUMP JUMPDEST PUSH1 0x20 PUSH1 0x40 MLOAD DUP1 DUP4 SUB DUP2 DUP7 DUP1 EXTCODESIZE ISZERO DUP1 ISZERO PUSH2 0x66A JUMPI PUSH1 0x0 DUP1 REVERT JUMPDEST POP GAS STATICCALL ISZERO DUP1 ISZERO PUSH2 0x67E JUMPI RETURNDATASIZE PUSH1 0x0 DUP1 RETURNDATACOPY RETURNDATASIZE PUSH1 0x0 REVERT JUMPDEST POP POP POP POP PUSH1 0x40 MLOAD RETURNDATASIZE PUSH1 0x1F NOT PUSH1 0x1F DUP3 ADD AND DUP3 ADD DUP1 PUSH1 0x40 MSTORE POP DUP2 ADD SWAP1 PUSH2 0x6A2 SWAP2 SWAP1 PUSH2 0x173D JUMP JUMPDEST PUSH1 0x40 MLOAD PUSH4 0x70A08231 PUSH1 0xE0 SHL DUP2 MSTORE ADDRESS PUSH1 0x4 DUP3 ADD MSTORE SWAP1 SWAP2 POP PUSH1 0x0 SWAP1 PUSH1 0x1 PUSH1 0x1 PUSH1 0xA0 SHL SUB DUP4 AND SWAP1 PUSH4 0x70A08231 SWAP1 PUSH1 0x24 ADD PUSH1 0x20 PUSH1 0x40 MLOAD DUP1 DUP4 SUB DUP2 DUP7 DUP1 EXTCODESIZE ISZERO DUP1 ISZERO PUSH2 0x6E7 JUMPI PUSH1 0x0 DUP1 REVERT JUMPDEST POP GAS STATICCALL ISZERO DUP1 ISZERO PUSH2 0x6FB JUMPI RETURNDATASIZE PUSH1 0x0 DUP1 RETURNDATACOPY RETURNDATASIZE PUSH1 0x0 REVERT JUMPDEST POP POP POP POP PUSH1 0x40 MLOAD RETURNDATASIZE PUSH1 0x1F NOT PUSH1 0x1F DUP3 ADD AND DUP3 ADD DUP1 PUSH1 0x40 MSTORE POP DUP2 ADD SWAP1 PUSH2 0x71F SWAP2 SWAP1 PUSH2 0x18A4 JUMP JUMPDEST SWAP1 POP DUP1 ISZERO PUSH2 0x54C JUMPI PUSH1 0x40 MLOAD PUSH4 0xA9059CBB PUSH1 0xE0 SHL DUP2 MSTORE CALLER PUSH1 0x4 DUP3 ADD MSTORE PUSH1 0x24 DUP2 ADD DUP3 SWAP1 MSTORE PUSH1 0x1 PUSH1 0x1 PUSH1 0xA0 SHL SUB DUP4 AND SWAP1 PUSH4 0xA9059CBB SWAP1 PUSH1 0x44 ADD PUSH1 0x20 PUSH1 0x40 MLOAD DUP1 DUP4 SUB DUP2 PUSH1 0x0 DUP8 DUP1 EXTCODESIZE ISZERO DUP1 ISZERO PUSH2 0x76F JUMPI PUSH1 0x0 DUP1 REVERT JUMPDEST POP GAS CALL ISZERO DUP1 ISZERO PUSH2 0x783 JUMPI RETURNDATASIZE PUSH1 0x0 DUP1 RETURNDATACOPY RETURNDATASIZE PUSH1 0x0 REVERT JUMPDEST POP POP POP POP PUSH1 0x40 MLOAD RETURNDATASIZE PUSH1 0x1F NOT PUSH1 0x1F DUP3 ADD AND DUP3 ADD DUP1 PUSH1 0x40 MSTORE POP DUP2 ADD SWAP1 PUSH2 0x7A7 SWAP2 SWAP1 PUSH2 0x17F4 JUMP JUMPDEST PUSH2 0x7B0 JUMPI PUSH1 0x0 DUP1 REVERT JUMPDEST PUSH1 0x40 MLOAD DUP2 DUP2 MSTORE CALLER SWAP1 PUSH32 0x7FCF532C15F0A6DB0BD6D0E038BEA71D30D808C7D98CB3BF7268A95BF5081B65 SWAP1 PUSH1 0x20 ADD PUSH1 0x40 MLOAD DUP1 SWAP2 SUB SWAP1 LOG2 POP POP JUMP JUMPDEST PUSH2 0x7F4 PUSH1 0x0 CALLER PUSH2 0x1052 JUMP JUMPDEST PUSH1 0x6 DUP2 SWAP1 SSTORE PUSH1 0x40 MLOAD DUP2 DUP2 MSTORE PUSH32 0xFD29C2CD5DC77CF2BAD34E3B80EC2592A7C16D32869CCAEE99F95AF250DB954A SWAP1 PUSH1 0x20 ADD JUMPDEST PUSH1 0x40 MLOAD DUP1 SWAP2 SUB SWAP1 LOG1 POP JUMP JUMPDEST PUSH2 0x848 PUSH1 0x0 DUP1 MLOAD PUSH1 0x20 PUSH2 0x1AE8 DUP4 CODECOPY DUP2 MLOAD SWAP2 MSTORE DUP3 PUSH2 0x550 JUMP JUMPDEST POP JUMP JUMPDEST PUSH1 0x0 DUP2 DUP2 MSTORE PUSH1 0x4 PUSH1 0x20 MSTORE PUSH1 0x40 SWAP1 KECCAK256 PUSH1 0x60 SWAP1 PUSH2 0x456 SWAP1 PUSH2 0x1106 JUMP JUMPDEST PUSH2 0x87D PUSH1 0x0 DUP1 MLOAD PUSH1 0x20 PUSH2 0x1AE8 DUP4 CODECOPY DUP2 MLOAD SWAP2 MSTORE CALLER PUSH2 0x1052 JUMP JUMPDEST DUP2 PUSH1 0x1 PUSH1 0x1 PUSH1 0xA0 SHL SUB DUP2 AND PUSH2 0x8A4 JUMPI PUSH1 0x40 MLOAD PUSH3 0x461BCD PUSH1 0xE5 SHL DUP2 MSTORE PUSH1 0x4 ADD PUSH2 0x4BC SWAP1 PUSH2 0x19E9 JUMP JUMPDEST DUP2 PUSH2 0x8B0 PUSH1 0x2 DUP3 PUSH2 0x1113 JUMP JUMPDEST PUSH2 0x8F2 JUMPI PUSH1 0x40 MLOAD PUSH3 0x461BCD PUSH1 0xE5 SHL DUP2 MSTORE PUSH1 0x20 PUSH1 0x4 DUP3 ADD MSTORE PUSH1 0x13 PUSH1 0x24 DUP3 ADD MSTORE PUSH19 0x10D85D1959DBDC9E481A5B995E1A5CDD195B9D PUSH1 0x6A SHL PUSH1 0x44 DUP3 ADD MSTORE PUSH1 0x64 ADD PUSH2 0x4BC JUMP JUMPDEST PUSH1 0x1 PUSH1 0x1 PUSH1 0xA0 SHL SUB DUP5 AND PUSH1 0x0 SWAP1 DUP2 MSTORE PUSH1 0x5 PUSH1 0x20 MSTORE PUSH1 0x40 SWAP1 KECCAK256 SLOAD DUP1 PUSH2 0x954 JUMPI PUSH1 0x40 MLOAD PUSH3 0x461BCD PUSH1 0xE5 SHL DUP2 MSTORE PUSH1 0x20 PUSH1 0x4 DUP3 ADD MSTORE PUSH1 0x19 PUSH1 0x24 DUP3 ADD MSTORE PUSH25 0x10DBDB1B1958DD1A5BDB881B9BDD081C9959DA5CDD195C9959 PUSH1 0x3A SHL PUSH1 0x44 DUP3 ADD MSTORE PUSH1 0x64 ADD PUSH2 0x4BC JUMP JUMPDEST PUSH1 0x0 DUP2 DUP2 MSTORE PUSH1 0x4 PUSH1 0x20 MSTORE PUSH1 0x40 SWAP1 KECCAK256 PUSH2 0x96C SWAP1 DUP7 PUSH2 0x112B JUMP JUMPDEST POP PUSH2 0x977 DUP6 DUP6 PUSH2 0x1140 JUMP JUMPDEST DUP4 DUP2 DUP7 PUSH1 0x1 PUSH1 0x1 PUSH1 0xA0 SHL SUB AND PUSH32 0x8037606A802935674E38F6D260E692AC650293484FB37A6D6777586CF53DDB6 PUSH1 0x40 MLOAD PUSH1 0x40 MLOAD DUP1 SWAP2 SUB SWAP1 LOG4 POP POP POP POP POP JUMP JUMPDEST PUSH2 0x9C1 PUSH1 0x0 CALLER PUSH2 0x1052 JUMP JUMPDEST PUSH2 0x9CC PUSH1 0x2 DUP3 PUSH2 0x1175 JUMP JUMPDEST ISZERO PUSH2 0x848 JUMPI PUSH1 0x40 MLOAD DUP2 SWAP1 PUSH32 0x279E7FCE070ACEF40C1B799F915CE1C5045D2579B3D37CD2C320F21EBC77FDDA SWAP1 PUSH1 0x0 SWAP1 LOG2 POP JUMP JUMPDEST PUSH1 0x0 DUP3 DUP2 MSTORE PUSH1 0x1 PUSH1 0x20 MSTORE PUSH1 0x40 DUP2 KECCAK256 PUSH2 0xA17 SWAP1 DUP4 PUSH2 0x1181 JUMP JUMPDEST SWAP4 SWAP3 POP POP POP JUMP JUMPDEST PUSH1 0x0 SWAP2 DUP3 MSTORE PUSH1 0x20 DUP3 DUP2 MSTORE PUSH1 0x40 DUP1 DUP5 KECCAK256 PUSH1 0x1 PUSH1 0x1 PUSH1 0xA0 SHL SUB SWAP4 SWAP1 SWAP4 AND DUP5 MSTORE SWAP2 SWAP1 MSTORE SWAP1 KECCAK256 SLOAD PUSH1 0xFF AND SWAP1 JUMP JUMPDEST PUSH2 0x848 PUSH1 0x0 DUP1 MLOAD PUSH1 0x20 PUSH2 0x1AE8 DUP4 CODECOPY DUP2 MLOAD SWAP2 MSTORE DUP3 PUSH2 0xD35 JUMP JUMPDEST PUSH2 0xA77 PUSH1 0x0 DUP1 MLOAD PUSH1 0x20 PUSH2 0x1AE8 DUP4 CODECOPY DUP2 MLOAD SWAP2 MSTORE CALLER PUSH2 0x1052 JUMP JUMPDEST DUP1 PUSH1 0x1 PUSH1 0x1 PUSH1 0xA0 SHL SUB DUP2 AND PUSH2 0xA9E JUMPI PUSH1 0x40 MLOAD PUSH3 0x461BCD PUSH1 0xE5 SHL DUP2 MSTORE PUSH1 0x4 ADD PUSH2 0x4BC SWAP1 PUSH2 0x19E9 JUMP JUMPDEST PUSH1 0x1 PUSH1 0x1 PUSH1 0xA0 SHL SUB DUP3 AND PUSH1 0x0 SWAP1 DUP2 MSTORE PUSH1 0x5 PUSH1 0x20 MSTORE PUSH1 0x40 SWAP1 KECCAK256 SLOAD DUP1 PUSH2 0xB00 JUMPI PUSH1 0x40 MLOAD PUSH3 0x461BCD PUSH1 0xE5 SHL DUP2 MSTORE PUSH1 0x20 PUSH1 0x4 DUP3 ADD MSTORE PUSH1 0x19 PUSH1 0x24 DUP3 ADD MSTORE PUSH25 0x10DBDB1B1958DD1A5BDB881B9BDD081C9959DA5CDD195C9959 PUSH1 0x3A SHL PUSH1 0x44 DUP3 ADD MSTORE PUSH1 0x64 ADD PUSH2 0x4BC JUMP JUMPDEST PUSH1 0x1 PUSH1 0x1 PUSH1 0xA0 SHL SUB DUP4 AND PUSH1 0x0 SWAP1 DUP2 MSTORE PUSH1 0x5 PUSH1 0x20 SWAP1 DUP2 MSTORE PUSH1 0x40 DUP1 DUP4 KECCAK256 DUP4 SWAP1 SSTORE DUP4 DUP4 MSTORE PUSH1 0x4 SWAP1 SWAP2 MSTORE SWAP1 KECCAK256 PUSH2 0xB32 SWAP1 DUP5 PUSH2 0x112B JUMP JUMPDEST POP PUSH1 0x40 MLOAD PUSH1 0x1 PUSH1 0x1 PUSH1 0xA0 SHL SUB DUP5 AND DUP2 MSTORE PUSH32 0x6EA5CB15AF73BB540519A6184200EC40F1FE6983F2DC3745B6A1AC3E9F2956C5 SWAP1 PUSH1 0x20 ADD PUSH1 0x40 MLOAD DUP1 SWAP2 SUB SWAP1 LOG1 POP POP POP JUMP JUMPDEST PUSH2 0xB8C PUSH1 0x0 DUP1 MLOAD PUSH1 0x20 PUSH2 0x1AE8 DUP4 CODECOPY DUP2 MLOAD SWAP2 MSTORE CALLER PUSH2 0x1052 JUMP JUMPDEST DUP2 PUSH1 0x1 PUSH1 0x1 PUSH1 0xA0 SHL SUB DUP2 AND PUSH2 0xBB3 JUMPI PUSH1 0x40 MLOAD PUSH3 0x461BCD PUSH1 0xE5 SHL DUP2 MSTORE PUSH1 0x4 ADD PUSH2 0x4BC SWAP1 PUSH2 0x19E9 JUMP JUMPDEST DUP2 PUSH2 0xBBF PUSH1 0x2 DUP3 PUSH2 0x1113 JUMP JUMPDEST PUSH2 0xC01 JUMPI PUSH1 0x40 MLOAD PUSH3 0x461BCD PUSH1 0xE5 SHL DUP2 MSTORE PUSH1 0x20 PUSH1 0x4 DUP3 ADD MSTORE PUSH1 0x13 PUSH1 0x24 DUP3 ADD MSTORE PUSH19 0x10D85D1959DBDC9E481A5B995E1A5CDD195B9D PUSH1 0x6A SHL PUSH1 0x44 DUP3 ADD MSTORE PUSH1 0x64 ADD PUSH2 0x4BC JUMP JUMPDEST PUSH1 0x1 PUSH1 0x1 PUSH1 0xA0 SHL SUB DUP5 AND PUSH1 0x0 SWAP1 DUP2 MSTORE PUSH1 0x5 PUSH1 0x20 MSTORE PUSH1 0x40 SWAP1 KECCAK256 SLOAD ISZERO PUSH2 0xC67 JUMPI PUSH1 0x40 MLOAD PUSH3 0x461BCD PUSH1 0xE5 SHL DUP2 MSTORE PUSH1 0x20 PUSH1 0x4 DUP3 ADD MSTORE PUSH1 0x1D PUSH1 0x24 DUP3 ADD MSTORE PUSH32 0x436F6C6C656374696F6E20616C72656164792072656769737465726564000000 PUSH1 0x44 DUP3 ADD MSTORE PUSH1 0x64 ADD PUSH2 0x4BC JUMP JUMPDEST PUSH1 0x6 SLOAD ISZERO PUSH2 0xC77 JUMPI PUSH2 0xC77 PUSH2 0x118D JUMP JUMPDEST PUSH2 0xC81 DUP5 DUP5 PUSH2 0x1140 JUMP JUMPDEST PUSH1 0x40 MLOAD PUSH1 0x1 PUSH1 0x1 PUSH1 0xA0 SHL SUB DUP6 AND DUP2 MSTORE DUP4 SWAP1 PUSH32 0x35096804C56CCC2A3DAD59368C53070C0D587E223F8B2C354238A88790D50187 SWAP1 PUSH1 0x20 ADD PUSH1 0x40 MLOAD DUP1 SWAP2 SUB SWAP1 LOG2 POP POP POP POP JUMP JUMPDEST PUSH2 0xCD0 PUSH1 0x0 CALLER PUSH2 0x1052 JUMP JUMPDEST PUSH1 0x7 DUP1 SLOAD PUSH1 0x1 PUSH1 0x1 PUSH1 0xA0 SHL SUB NOT AND PUSH1 0x1 PUSH1 0x1 PUSH1 0xA0 SHL SUB DUP4 AND SWAP1 DUP2 OR SWAP1 SWAP2 SSTORE PUSH1 0x40 MLOAD SWAP1 DUP2 MSTORE PUSH32 0x5CF8983A7FEFF383C053EEEAF62ADE56853E2448E03FF99357CE8B2F85135C16 SWAP1 PUSH1 0x20 ADD PUSH2 0x825 JUMP JUMPDEST PUSH1 0x0 DUP2 DUP2 MSTORE PUSH1 0x1 PUSH1 0x20 MSTORE PUSH1 0x40 DUP2 KECCAK256 PUSH2 0x456 SWAP1 PUSH2 0x12C5 JUMP JUMPDEST PUSH1 0x0 DUP3 DUP2 MSTORE PUSH1 0x20 DUP2 SWAP1 MSTORE PUSH1 0x40 SWAP1 KECCAK256 PUSH1 0x1 ADD SLOAD PUSH2 0xD51 DUP2 CALLER PUSH2 0x1052 JUMP JUMPDEST PUSH2 0x576 DUP4 DUP4 PUSH2 0x10E4 JUMP JUMPDEST PUSH1 0x60 PUSH2 0xD67 PUSH1 0x2 PUSH2 0x12CF JUMP JUMPDEST SWAP1 POP SWAP1 JUMP JUMPDEST PUSH2 0xD77 PUSH1 0x0 CALLER PUSH2 0x1052 JUMP JUMPDEST PUSH1 0x0 DUP2 PUSH8 0xFFFFFFFFFFFFFFFF DUP2 GT ISZERO PUSH2 0xDA0 JUMPI PUSH4 0x4E487B71 PUSH1 0xE0 SHL PUSH1 0x0 MSTORE PUSH1 0x41 PUSH1 0x4 MSTORE PUSH1 0x24 PUSH1 0x0 REVERT JUMPDEST PUSH1 0x40 MLOAD SWAP1 DUP1 DUP3 MSTORE DUP1 PUSH1 0x20 MUL PUSH1 0x20 ADD DUP3 ADD PUSH1 0x40 MSTORE DUP1 ISZERO PUSH2 0xDC9 JUMPI DUP2 PUSH1 0x20 ADD PUSH1 0x20 DUP3 MUL DUP1 CALLDATASIZE DUP4 CALLDATACOPY ADD SWAP1 POP JUMPDEST POP SWAP1 POP PUSH1 0x0 DUP1 JUMPDEST DUP4 DUP2 LT ISZERO PUSH2 0xEF1 JUMPI DUP5 DUP5 DUP3 DUP2 DUP2 LT PUSH2 0xDF8 JUMPI PUSH4 0x4E487B71 PUSH1 0xE0 SHL PUSH1 0x0 MSTORE PUSH1 0x32 PUSH1 0x4 MSTORE PUSH1 0x24 PUSH1 0x0 REVERT JUMPDEST SWAP1 POP PUSH1 0x20 MUL ADD CALLDATALOAD PUSH1 0x0 EQ ISZERO PUSH2 0xE40 JUMPI PUSH1 0x40 MLOAD PUSH3 0x461BCD PUSH1 0xE5 SHL DUP2 MSTORE PUSH1 0x20 PUSH1 0x4 DUP3 ADD MSTORE PUSH1 0xE PUSH1 0x24 DUP3 ADD MSTORE PUSH14 0x456D7074792063617465676F7279 PUSH1 0x90 SHL PUSH1 0x44 DUP3 ADD MSTORE PUSH1 0x64 ADD PUSH2 0x4BC JUMP JUMPDEST PUSH2 0xE7A DUP6 DUP6 DUP4 DUP2 DUP2 LT PUSH2 0xE63 JUMPI PUSH4 0x4E487B71 PUSH1 0xE0 SHL PUSH1 0x0 MSTORE PUSH1 0x32 PUSH1 0x4 MSTORE PUSH1 0x24 PUSH1 0x0 REVERT JUMPDEST SWAP1 POP PUSH1 0x20 MUL ADD CALLDATALOAD PUSH1 0x2 PUSH2 0x10B6 SWAP1 SWAP2 SWAP1 PUSH4 0xFFFFFFFF AND JUMP JUMPDEST ISZERO PUSH2 0xEDF JUMPI DUP5 DUP5 DUP3 DUP2 DUP2 LT PUSH2 0xE9F JUMPI PUSH4 0x4E487B71 PUSH1 0xE0 SHL PUSH1 0x0 MSTORE PUSH1 0x32 PUSH1 0x4 MSTORE PUSH1 0x24 PUSH1 0x0 REVERT JUMPDEST SWAP1 POP PUSH1 0x20 MUL ADD CALLDATALOAD DUP4 DUP4 DUP2 MLOAD DUP2 LT PUSH2 0xEC6 JUMPI PUSH4 0x4E487B71 PUSH1 0xE0 SHL PUSH1 0x0 MSTORE PUSH1 0x32 PUSH1 0x4 MSTORE PUSH1 0x24 PUSH1 0x0 REVERT JUMPDEST PUSH1 0x20 SWAP1 DUP2 MUL SWAP2 SWAP1 SWAP2 ADD ADD MSTORE PUSH2 0xEDC PUSH1 0x1 DUP4 PUSH2 0x1A0C JUMP JUMPDEST SWAP2 POP JUMPDEST DUP1 PUSH2 0xEE9 DUP2 PUSH2 0x1AA1 JUMP JUMPDEST SWAP2 POP POP PUSH2 0xDD0 JUMP JUMPDEST POP PUSH32 0x45F6CCED881F2D2F0CA76A0BB88F56A6B41C88FCD5CDBEB2AED354A72B536F93 DUP3 PUSH1 0x40 MLOAD PUSH2 0xF21 SWAP2 SWAP1 PUSH2 0x197E JUMP JUMPDEST PUSH1 0x40 MLOAD DUP1 SWAP2 SUB SWAP1 LOG1 POP POP POP POP JUMP JUMPDEST PUSH1 0x0 PUSH2 0xF3B PUSH1 0x2 PUSH2 0x12C5 JUMP JUMPDEST DUP3 LT PUSH2 0xF79 JUMPI PUSH1 0x40 MLOAD PUSH3 0x461BCD PUSH1 0xE5 SHL DUP2 MSTORE PUSH1 0x20 PUSH1 0x4 DUP3 ADD MSTORE PUSH1 0xD PUSH1 0x24 DUP3 ADD MSTORE PUSH13 0x92DCECC2D8D2C840D2DCC8CAF PUSH1 0x9B SHL PUSH1 0x44 DUP3 ADD MSTORE PUSH1 0x64 ADD PUSH2 0x4BC JUMP JUMPDEST PUSH2 0x456 PUSH1 0x2 DUP4 PUSH2 0x1181 JUMP JUMPDEST PUSH2 0xF8E DUP3 DUP3 PUSH2 0xA1E JUMP JUMPDEST PUSH2 0x54C JUMPI PUSH1 0x0 DUP3 DUP2 MSTORE PUSH1 0x20 DUP2 DUP2 MSTORE PUSH1 0x40 DUP1 DUP4 KECCAK256 PUSH1 0x1 PUSH1 0x1 PUSH1 0xA0 SHL SUB DUP6 AND DUP5 MSTORE SWAP1 SWAP2 MSTORE SWAP1 KECCAK256 DUP1 SLOAD PUSH1 0xFF NOT AND PUSH1 0x1 OR SWAP1 SSTORE PUSH2 0xFC4 CALLER SWAP1 JUMP JUMPDEST PUSH1 0x1 PUSH1 0x1 PUSH1 0xA0 SHL SUB AND DUP2 PUSH1 0x1 PUSH1 0x1 PUSH1 0xA0 SHL SUB AND DUP4 PUSH32 0x2F8788117E7EFF1D82E926EC794901D17C78024A50270940304540A733656F0D PUSH1 0x40 MLOAD PUSH1 0x40 MLOAD DUP1 SWAP2 SUB SWAP1 LOG4 POP POP JUMP JUMPDEST PUSH1 0x0 PUSH2 0xA17 DUP4 PUSH1 0x1 PUSH1 0x1 PUSH1 0xA0 SHL SUB DUP5 AND PUSH2 0x12DA JUMP JUMPDEST PUSH1 0x0 PUSH1 0x1 PUSH1 0x1 PUSH1 0xE0 SHL SUB NOT DUP3 AND PUSH4 0x7965DB0B PUSH1 0xE0 SHL EQ DUP1 PUSH2 0x456 JUMPI POP PUSH4 0x1FFC9A7 PUSH1 0xE0 SHL PUSH1 0x1 PUSH1 0x1 PUSH1 0xE0 SHL SUB NOT DUP4 AND EQ PUSH2 0x456 JUMP JUMPDEST PUSH2 0x105C DUP3 DUP3 PUSH2 0xA1E JUMP JUMPDEST PUSH2 0x54C JUMPI PUSH2 0x1074 DUP2 PUSH1 0x1 PUSH1 0x1 PUSH1 0xA0 SHL SUB AND PUSH1 0x14 PUSH2 0x1329 JUMP JUMPDEST PUSH2 0x107F DUP4 PUSH1 0x20 PUSH2 0x1329 JUMP JUMPDEST PUSH1 0x40 MLOAD PUSH1 0x20 ADD PUSH2 0x1090 SWAP3 SWAP2 SWAP1 PUSH2 0x18BC JUMP JUMPDEST PUSH1 0x40 DUP1 MLOAD PUSH1 0x1F NOT DUP2 DUP5 SUB ADD DUP2 MSTORE SWAP1 DUP3 SWAP1 MSTORE PUSH3 0x461BCD PUSH1 0xE5 SHL DUP3 MSTORE PUSH2 0x4BC SWAP2 PUSH1 0x4 ADD PUSH2 0x19B6 JUMP JUMPDEST PUSH1 0x0 PUSH2 0xA17 DUP4 DUP4 PUSH2 0x12DA JUMP JUMPDEST PUSH2 0x10CC DUP3 DUP3 PUSH2 0xF84 JUMP JUMPDEST PUSH1 0x0 DUP3 DUP2 MSTORE PUSH1 0x1 PUSH1 0x20 MSTORE PUSH1 0x40 SWAP1 KECCAK256 PUSH2 0x576 SWAP1 DUP3 PUSH2 0x1008 JUMP JUMPDEST PUSH2 0x10EE DUP3 DUP3 PUSH2 0x150B JUMP JUMPDEST PUSH1 0x0 DUP3 DUP2 MSTORE PUSH1 0x1 PUSH1 0x20 MSTORE PUSH1 0x40 SWAP1 KECCAK256 PUSH2 0x576 SWAP1 DUP3 PUSH2 0x112B JUMP JUMPDEST PUSH1 0x60 PUSH1 0x0 PUSH2 0xA17 DUP4 PUSH2 0x1570 JUMP JUMPDEST PUSH1 0x0 DUP2 DUP2 MSTORE PUSH1 0x1 DUP4 ADD PUSH1 0x20 MSTORE PUSH1 0x40 DUP2 KECCAK256 SLOAD ISZERO ISZERO PUSH2 0xA17 JUMP JUMPDEST PUSH1 0x0 PUSH2 0xA17 DUP4 PUSH1 0x1 PUSH1 0x1 PUSH1 0xA0 SHL SUB DUP5 AND PUSH2 0x15CC JUMP JUMPDEST PUSH1 0x0 DUP2 DUP2 MSTORE PUSH1 0x4 PUSH1 0x20 MSTORE PUSH1 0x40 SWAP1 KECCAK256 PUSH2 0x1158 SWAP1 DUP4 PUSH2 0x1008 JUMP JUMPDEST POP PUSH1 0x1 PUSH1 0x1 PUSH1 0xA0 SHL SUB SWAP1 SWAP2 AND PUSH1 0x0 SWAP1 DUP2 MSTORE PUSH1 0x5 PUSH1 0x20 MSTORE PUSH1 0x40 SWAP1 KECCAK256 SSTORE JUMP JUMPDEST PUSH1 0x0 PUSH2 0xA17 DUP4 DUP4 PUSH2 0x15CC JUMP JUMPDEST PUSH1 0x0 PUSH2 0xA17 DUP4 DUP4 PUSH2 0x16E9 JUMP JUMPDEST PUSH1 0x7 SLOAD PUSH1 0x40 DUP1 MLOAD DUP1 DUP3 ADD DUP3 MSTORE PUSH1 0xD DUP2 MSTORE PUSH13 0x151BDAD95B90DBDB9D1C9858DD PUSH1 0x9A SHL PUSH1 0x20 DUP3 ADD MSTORE SWAP1 MLOAD PUSH4 0x110CEEF PUSH1 0xE2 SHL DUP2 MSTORE PUSH1 0x0 SWAP3 PUSH1 0x1 PUSH1 0x1 PUSH1 0xA0 SHL SUB AND SWAP2 PUSH4 0x4433BBC SWAP2 PUSH2 0x11DF SWAP2 SWAP1 PUSH1 0x4 ADD PUSH2 0x19B6 JUMP JUMPDEST PUSH1 0x20 PUSH1 0x40 MLOAD DUP1 DUP4 SUB DUP2 DUP7 DUP1 EXTCODESIZE ISZERO DUP1 ISZERO PUSH2 0x11F7 JUMPI PUSH1 0x0 DUP1 REVERT JUMPDEST POP GAS STATICCALL ISZERO DUP1 ISZERO PUSH2 0x120B JUMPI RETURNDATASIZE PUSH1 0x0 DUP1 RETURNDATACOPY RETURNDATASIZE PUSH1 0x0 REVERT JUMPDEST POP POP POP POP PUSH1 0x40 MLOAD RETURNDATASIZE PUSH1 0x1F NOT PUSH1 0x1F DUP3 ADD AND DUP3 ADD DUP1 PUSH1 0x40 MSTORE POP DUP2 ADD SWAP1 PUSH2 0x122F SWAP2 SWAP1 PUSH2 0x173D JUMP JUMPDEST PUSH1 0x6 SLOAD PUSH1 0x40 MLOAD PUSH4 0x23B872DD PUSH1 0xE0 SHL DUP2 MSTORE CALLER PUSH1 0x4 DUP3 ADD MSTORE ADDRESS PUSH1 0x24 DUP3 ADD MSTORE PUSH1 0x44 DUP2 ADD SWAP2 SWAP1 SWAP2 MSTORE SWAP1 SWAP2 POP PUSH1 0x1 PUSH1 0x1 PUSH1 0xA0 SHL SUB DUP3 AND SWAP1 PUSH4 0x23B872DD SWAP1 PUSH1 0x64 ADD PUSH1 0x20 PUSH1 0x40 MLOAD DUP1 DUP4 SUB DUP2 PUSH1 0x0 DUP8 DUP1 EXTCODESIZE ISZERO DUP1 ISZERO PUSH2 0x1284 JUMPI PUSH1 0x0 DUP1 REVERT JUMPDEST POP GAS CALL ISZERO DUP1 ISZERO PUSH2 0x1298 JUMPI RETURNDATASIZE PUSH1 0x0 DUP1 RETURNDATACOPY RETURNDATASIZE PUSH1 0x0 REVERT JUMPDEST POP POP POP POP PUSH1 0x40 MLOAD RETURNDATASIZE PUSH1 0x1F NOT PUSH1 0x1F DUP3 ADD AND DUP3 ADD DUP1 PUSH1 0x40 MSTORE POP DUP2 ADD SWAP1 PUSH2 0x12BC SWAP2 SWAP1 PUSH2 0x17F4 JUMP JUMPDEST PUSH2 0x848 JUMPI PUSH1 0x0 DUP1 REVERT JUMPDEST PUSH1 0x0 PUSH2 0x456 DUP3 SLOAD SWAP1 JUMP JUMPDEST PUSH1 0x60 PUSH2 0x456 DUP3 PUSH2 0x1570 JUMP JUMPDEST PUSH1 0x0 DUP2 DUP2 MSTORE PUSH1 0x1 DUP4 ADD PUSH1 0x20 MSTORE PUSH1 0x40 DUP2 KECCAK256 SLOAD PUSH2 0x1321 JUMPI POP DUP2 SLOAD PUSH1 0x1 DUP2 DUP2 ADD DUP5 SSTORE PUSH1 0x0 DUP5 DUP2 MSTORE PUSH1 0x20 DUP1 DUP3 KECCAK256 SWAP1 SWAP4 ADD DUP5 SWAP1 SSTORE DUP5 SLOAD DUP5 DUP3 MSTORE DUP3 DUP7 ADD SWAP1 SWAP4 MSTORE PUSH1 0x40 SWAP1 KECCAK256 SWAP2 SWAP1 SWAP2 SSTORE PUSH2 0x456 JUMP JUMPDEST POP PUSH1 0x0 PUSH2 0x456 JUMP JUMPDEST PUSH1 0x60 PUSH1 0x0 PUSH2 0x1338 DUP4 PUSH1 0x2 PUSH2 0x1A24 JUMP JUMPDEST PUSH2 0x1343 SWAP1 PUSH1 0x2 PUSH2 0x1A0C JUMP JUMPDEST PUSH8 0xFFFFFFFFFFFFFFFF DUP2 GT ISZERO PUSH2 0x1369 JUMPI PUSH4 0x4E487B71 PUSH1 0xE0 SHL PUSH1 0x0 MSTORE PUSH1 0x41 PUSH1 0x4 MSTORE PUSH1 0x24 PUSH1 0x0 REVERT JUMPDEST PUSH1 0x40 MLOAD SWAP1 DUP1 DUP3 MSTORE DUP1 PUSH1 0x1F ADD PUSH1 0x1F NOT AND PUSH1 0x20 ADD DUP3 ADD PUSH1 0x40 MSTORE DUP1 ISZERO PUSH2 0x1393 JUMPI PUSH1 0x20 DUP3 ADD DUP2 DUP1 CALLDATASIZE DUP4 CALLDATACOPY ADD SWAP1 POP JUMPDEST POP SWAP1 POP PUSH1 0x3 PUSH1 0xFC SHL DUP2 PUSH1 0x0 DUP2 MLOAD DUP2 LT PUSH2 0x13BC JUMPI PUSH4 0x4E487B71 PUSH1 0xE0 SHL PUSH1 0x0 MSTORE PUSH1 0x32 PUSH1 0x4 MSTORE PUSH1 0x24 PUSH1 0x0 REVERT JUMPDEST PUSH1 0x20 ADD ADD SWAP1 PUSH1 0x1 PUSH1 0x1 PUSH1 0xF8 SHL SUB NOT AND SWAP1 DUP2 PUSH1 0x0 BYTE SWAP1 MSTORE8 POP PUSH1 0xF PUSH1 0xFB SHL DUP2 PUSH1 0x1 DUP2 MLOAD DUP2 LT PUSH2 0x13F9 JUMPI PUSH4 0x4E487B71 PUSH1 0xE0 SHL PUSH1 0x0 MSTORE PUSH1 0x32 PUSH1 0x4 MSTORE PUSH1 0x24 PUSH1 0x0 REVERT JUMPDEST PUSH1 0x20 ADD ADD SWAP1 PUSH1 0x1 PUSH1 0x1 PUSH1 0xF8 SHL SUB NOT AND SWAP1 DUP2 PUSH1 0x0 BYTE SWAP1 MSTORE8 POP PUSH1 0x0 PUSH2 0x141D DUP5 PUSH1 0x2 PUSH2 0x1A24 JUMP JUMPDEST PUSH2 0x1428 SWAP1 PUSH1 0x1 PUSH2 0x1A0C JUMP JUMPDEST SWAP1 POP JUMPDEST PUSH1 0x1 DUP2 GT ISZERO PUSH2 0x14BC JUMPI PUSH16 0x181899199A1A9B1B9C1CB0B131B232B3 PUSH1 0x81 SHL DUP6 PUSH1 0xF AND PUSH1 0x10 DUP2 LT PUSH2 0x146A JUMPI PUSH4 0x4E487B71 PUSH1 0xE0 SHL PUSH1 0x0 MSTORE PUSH1 0x32 PUSH1 0x4 MSTORE PUSH1 0x24 PUSH1 0x0 REVERT JUMPDEST BYTE PUSH1 0xF8 SHL DUP3 DUP3 DUP2 MLOAD DUP2 LT PUSH2 0x148E JUMPI PUSH4 0x4E487B71 PUSH1 0xE0 SHL PUSH1 0x0 MSTORE PUSH1 0x32 PUSH1 0x4 MSTORE PUSH1 0x24 PUSH1 0x0 REVERT JUMPDEST PUSH1 0x20 ADD ADD SWAP1 PUSH1 0x1 PUSH1 0x1 PUSH1 0xF8 SHL SUB NOT AND SWAP1 DUP2 PUSH1 0x0 BYTE SWAP1 MSTORE8 POP PUSH1 0x4 SWAP5 SWAP1 SWAP5 SHR SWAP4 PUSH2 0x14B5 DUP2 PUSH2 0x1A8A JUMP JUMPDEST SWAP1 POP PUSH2 0x142B JUMP JUMPDEST POP DUP4 ISZERO PUSH2 0xA17 JUMPI PUSH1 0x40 MLOAD PUSH3 0x461BCD PUSH1 0xE5 SHL DUP2 MSTORE PUSH1 0x20 PUSH1 0x4 DUP3 ADD DUP2 SWAP1 MSTORE PUSH1 0x24 DUP3 ADD MSTORE PUSH32 0x537472696E67733A20686578206C656E67746820696E73756666696369656E74 PUSH1 0x44 DUP3 ADD MSTORE PUSH1 0x64 ADD PUSH2 0x4BC JUMP JUMPDEST PUSH2 0x1515 DUP3 DUP3 PUSH2 0xA1E JUMP JUMPDEST ISZERO PUSH2 0x54C JUMPI PUSH1 0x0 DUP3 DUP2 MSTORE PUSH1 0x20 DUP2 DUP2 MSTORE PUSH1 0x40 DUP1 DUP4 KECCAK256 PUSH1 0x1 PUSH1 0x1 PUSH1 0xA0 SHL SUB DUP6 AND DUP1 DUP6 MSTORE SWAP3 MSTORE DUP1 DUP4 KECCAK256 DUP1 SLOAD PUSH1 0xFF NOT AND SWAP1 SSTORE MLOAD CALLER SWAP3 DUP6 SWAP2 PUSH32 0xF6391F5C32D9C69D2A47EA670B442974B53935D1EDC7FD64EB21E047A839171B SWAP2 SWAP1 LOG4 POP POP JUMP JUMPDEST PUSH1 0x60 DUP2 PUSH1 0x0 ADD DUP1 SLOAD DUP1 PUSH1 0x20 MUL PUSH1 0x20 ADD PUSH1 0x40 MLOAD SWAP1 DUP2 ADD PUSH1 0x40 MSTORE DUP1 SWAP3 SWAP2 SWAP1 DUP2 DUP2 MSTORE PUSH1 0x20 ADD DUP3 DUP1 SLOAD DUP1 ISZERO PUSH2 0x15C0 JUMPI PUSH1 0x20 MUL DUP3 ADD SWAP2 SWAP1 PUSH1 0x0 MSTORE PUSH1 0x20 PUSH1 0x0 KECCAK256 SWAP1 JUMPDEST DUP2 SLOAD DUP2 MSTORE PUSH1 0x20 ADD SWAP1 PUSH1 0x1 ADD SWAP1 DUP1 DUP4 GT PUSH2 0x15AC JUMPI JUMPDEST POP POP POP POP POP SWAP1 POP SWAP2 SWAP1 POP JUMP JUMPDEST PUSH1 0x0 DUP2 DUP2 MSTORE PUSH1 0x1 DUP4 ADD PUSH1 0x20 MSTORE PUSH1 0x40 DUP2 KECCAK256 SLOAD DUP1 ISZERO PUSH2 0x16DF JUMPI PUSH1 0x0 PUSH2 0x15F0 PUSH1 0x1 DUP4 PUSH2 0x1A43 JUMP JUMPDEST DUP6 SLOAD SWAP1 SWAP2 POP PUSH1 0x0 SWAP1 PUSH2 0x1604 SWAP1 PUSH1 0x1 SWAP1 PUSH2 0x1A43 JUMP JUMPDEST SWAP1 POP DUP2 DUP2 EQ PUSH2 0x1685 JUMPI PUSH1 0x0 DUP7 PUSH1 0x0 ADD DUP3 DUP2 SLOAD DUP2 LT PUSH2 0x1632 JUMPI PUSH4 0x4E487B71 PUSH1 0xE0 SHL PUSH1 0x0 MSTORE PUSH1 0x32 PUSH1 0x4 MSTORE PUSH1 0x24 PUSH1 0x0 REVERT JUMPDEST SWAP1 PUSH1 0x0 MSTORE PUSH1 0x20 PUSH1 0x0 KECCAK256 ADD SLOAD SWAP1 POP DUP1 DUP8 PUSH1 0x0 ADD DUP5 DUP2 SLOAD DUP2 LT PUSH2 0x1663 JUMPI PUSH4 0x4E487B71 PUSH1 0xE0 SHL PUSH1 0x0 MSTORE PUSH1 0x32 PUSH1 0x4 MSTORE PUSH1 0x24 PUSH1 0x0 REVERT JUMPDEST PUSH1 0x0 SWAP2 DUP3 MSTORE PUSH1 0x20 DUP1 DUP4 KECCAK256 SWAP1 SWAP2 ADD SWAP3 SWAP1 SWAP3 SSTORE SWAP2 DUP3 MSTORE PUSH1 0x1 DUP9 ADD SWAP1 MSTORE PUSH1 0x40 SWAP1 KECCAK256 DUP4 SWAP1 SSTORE JUMPDEST DUP6 SLOAD DUP7 SWAP1 DUP1 PUSH2 0x16A4 JUMPI PUSH4 0x4E487B71 PUSH1 0xE0 SHL PUSH1 0x0 MSTORE PUSH1 0x31 PUSH1 0x4 MSTORE PUSH1 0x24 PUSH1 0x0 REVERT JUMPDEST PUSH1 0x1 SWAP1 SUB DUP2 DUP2 SWAP1 PUSH1 0x0 MSTORE PUSH1 0x20 PUSH1 0x0 KECCAK256 ADD PUSH1 0x0 SWAP1 SSTORE SWAP1 SSTORE DUP6 PUSH1 0x1 ADD PUSH1 0x0 DUP7 DUP2 MSTORE PUSH1 0x20 ADD SWAP1 DUP2 MSTORE PUSH1 0x20 ADD PUSH1 0x0 KECCAK256 PUSH1 0x0 SWAP1 SSTORE PUSH1 0x1 SWAP4 POP POP POP POP PUSH2 0x456 JUMP JUMPDEST PUSH1 0x0 SWAP2 POP POP PUSH2 0x456 JUMP JUMPDEST PUSH1 0x0 DUP3 PUSH1 0x0 ADD DUP3 DUP2 SLOAD DUP2 LT PUSH2 0x170E JUMPI PUSH4 0x4E487B71 PUSH1 0xE0 SHL PUSH1 0x0 MSTORE PUSH1 0x32 PUSH1 0x4 MSTORE PUSH1 0x24 PUSH1 0x0 REVERT JUMPDEST SWAP1 PUSH1 0x0 MSTORE PUSH1 0x20 PUSH1 0x0 KECCAK256 ADD SLOAD SWAP1 POP SWAP3 SWAP2 POP POP JUMP JUMPDEST PUSH1 0x0 PUSH1 0x20 DUP3 DUP5 SUB SLT ISZERO PUSH2 0x1732 JUMPI DUP1 DUP2 REVERT JUMPDEST DUP2 CALLDATALOAD PUSH2 0xA17 DUP2 PUSH2 0x1AD2 JUMP JUMPDEST PUSH1 0x0 PUSH1 0x20 DUP3 DUP5 SUB SLT ISZERO PUSH2 0x174E JUMPI DUP1 DUP2 REVERT JUMPDEST DUP2 MLOAD PUSH2 0xA17 DUP2 PUSH2 0x1AD2 JUMP JUMPDEST PUSH1 0x0 DUP1 PUSH1 0x40 DUP4 DUP6 SUB SLT ISZERO PUSH2 0x176B JUMPI DUP1 DUP2 REVERT JUMPDEST DUP3 CALLDATALOAD PUSH2 0x1776 DUP2 PUSH2 0x1AD2 JUMP JUMPDEST SWAP5 PUSH1 0x20 SWAP4 SWAP1 SWAP4 ADD CALLDATALOAD SWAP4 POP POP POP JUMP JUMPDEST PUSH1 0x0 DUP1 PUSH1 0x20 DUP4 DUP6 SUB SLT ISZERO PUSH2 0x1796 JUMPI DUP2 DUP3 REVERT JUMPDEST DUP3 CALLDATALOAD PUSH8 0xFFFFFFFFFFFFFFFF DUP1 DUP3 GT ISZERO PUSH2 0x17AD JUMPI DUP4 DUP5 REVERT JUMPDEST DUP2 DUP6 ADD SWAP2 POP DUP6 PUSH1 0x1F DUP4 ADD SLT PUSH2 0x17C0 JUMPI DUP4 DUP5 REVERT JUMPDEST DUP2 CALLDATALOAD DUP2 DUP2 GT ISZERO PUSH2 0x17CE JUMPI DUP5 DUP6 REVERT JUMPDEST DUP7 PUSH1 0x20 DUP3 PUSH1 0x5 SHL DUP6 ADD ADD GT ISZERO PUSH2 0x17E2 JUMPI DUP5 DUP6 REVERT JUMPDEST PUSH1 0x20 SWAP3 SWAP1 SWAP3 ADD SWAP7 SWAP2 SWAP6 POP SWAP1 SWAP4 POP POP POP POP JUMP JUMPDEST PUSH1 0x0 PUSH1 0x20 DUP3 DUP5 SUB SLT ISZERO PUSH2 0x1805 JUMPI DUP1 DUP2 REVERT JUMPDEST DUP2 MLOAD DUP1 ISZERO ISZERO DUP2 EQ PUSH2 0xA17 JUMPI DUP2 DUP3 REVERT JUMPDEST PUSH1 0x0 PUSH1 0x20 DUP3 DUP5 SUB SLT ISZERO PUSH2 0x1825 JUMPI DUP1 DUP2 REVERT JUMPDEST POP CALLDATALOAD SWAP2 SWAP1 POP JUMP JUMPDEST PUSH1 0x0 DUP1 PUSH1 0x40 DUP4 DUP6 SUB SLT ISZERO PUSH2 0x183E JUMPI DUP2 DUP3 REVERT JUMPDEST DUP3 CALLDATALOAD SWAP2 POP PUSH1 0x20 DUP4 ADD CALLDATALOAD PUSH2 0x1850 DUP2 PUSH2 0x1AD2 JUMP JUMPDEST DUP1 SWAP2 POP POP SWAP3 POP SWAP3 SWAP1 POP JUMP JUMPDEST PUSH1 0x0 DUP1 PUSH1 0x40 DUP4 DUP6 SUB SLT ISZERO PUSH2 0x186D JUMPI DUP2 DUP3 REVERT JUMPDEST POP POP DUP1 CALLDATALOAD SWAP3 PUSH1 0x20 SWAP1 SWAP2 ADD CALLDATALOAD SWAP2 POP JUMP JUMPDEST PUSH1 0x0 PUSH1 0x20 DUP3 DUP5 SUB SLT ISZERO PUSH2 0x188D JUMPI DUP1 DUP2 REVERT JUMPDEST DUP2 CALLDATALOAD PUSH1 0x1 PUSH1 0x1 PUSH1 0xE0 SHL SUB NOT DUP2 AND DUP2 EQ PUSH2 0xA17 JUMPI DUP2 DUP3 REVERT JUMPDEST PUSH1 0x0 PUSH1 0x20 DUP3 DUP5 SUB SLT ISZERO PUSH2 0x18B5 JUMPI DUP1 DUP2 REVERT JUMPDEST POP MLOAD SWAP2 SWAP1 POP JUMP JUMPDEST PUSH32 0x416363657373436F6E74726F6C3A206163636F756E7420000000000000000000 DUP2 MSTORE PUSH1 0x0 DUP4 MLOAD PUSH2 0x18F4 DUP2 PUSH1 0x17 DUP6 ADD PUSH1 0x20 DUP9 ADD PUSH2 0x1A5A JUMP JUMPDEST PUSH17 0x1034B99036B4B9B9B4B733903937B6329 PUSH1 0x7D SHL PUSH1 0x17 SWAP2 DUP5 ADD SWAP2 DUP3 ADD MSTORE DUP4 MLOAD PUSH2 0x1925 DUP2 PUSH1 0x28 DUP5 ADD PUSH1 0x20 DUP9 ADD PUSH2 0x1A5A JUMP JUMPDEST ADD PUSH1 0x28 ADD SWAP5 SWAP4 POP POP POP POP JUMP JUMPDEST PUSH1 0x20 DUP1 DUP3 MSTORE DUP3 MLOAD DUP3 DUP3 ADD DUP2 SWAP1 MSTORE PUSH1 0x0 SWAP2 SWAP1 DUP5 DUP3 ADD SWAP1 PUSH1 0x40 DUP6 ADD SWAP1 DUP5 JUMPDEST DUP2 DUP2 LT ISZERO PUSH2 0x1972 JUMPI DUP4 MLOAD PUSH1 0x1 PUSH1 0x1 PUSH1 0xA0 SHL SUB AND DUP4 MSTORE SWAP3 DUP5 ADD SWAP3 SWAP2 DUP5 ADD SWAP2 PUSH1 0x1 ADD PUSH2 0x194D JUMP JUMPDEST POP SWAP1 SWAP7 SWAP6 POP POP POP POP POP POP JUMP JUMPDEST PUSH1 0x20 DUP1 DUP3 MSTORE DUP3 MLOAD DUP3 DUP3 ADD DUP2 SWAP1 MSTORE PUSH1 0x0 SWAP2 SWAP1 DUP5 DUP3 ADD SWAP1 PUSH1 0x40 DUP6 ADD SWAP1 DUP5 JUMPDEST DUP2 DUP2 LT ISZERO PUSH2 0x1972 JUMPI DUP4 MLOAD DUP4 MSTORE SWAP3 DUP5 ADD SWAP3 SWAP2 DUP5 ADD SWAP2 PUSH1 0x1 ADD PUSH2 0x199A JUMP JUMPDEST PUSH1 0x20 DUP2 MSTORE PUSH1 0x0 DUP3 MLOAD DUP1 PUSH1 0x20 DUP5 ADD MSTORE PUSH2 0x19D5 DUP2 PUSH1 0x40 DUP6 ADD PUSH1 0x20 DUP8 ADD PUSH2 0x1A5A JUMP JUMPDEST PUSH1 0x1F ADD PUSH1 0x1F NOT AND SWAP2 SWAP1 SWAP2 ADD PUSH1 0x40 ADD SWAP3 SWAP2 POP POP JUMP JUMPDEST PUSH1 0x20 DUP1 DUP3 MSTORE PUSH1 0x9 SWAP1 DUP3 ADD MSTORE PUSH9 0x41646472657373203 PUSH1 0xBC SHL PUSH1 0x40 DUP3 ADD MSTORE PUSH1 0x60 ADD SWAP1 JUMP JUMPDEST PUSH1 0x0 DUP3 NOT DUP3 GT ISZERO PUSH2 0x1A1F JUMPI PUSH2 0x1A1F PUSH2 0x1ABC JUMP JUMPDEST POP ADD SWAP1 JUMP JUMPDEST PUSH1 0x0 DUP2 PUSH1 0x0 NOT DIV DUP4 GT DUP3 ISZERO ISZERO AND ISZERO PUSH2 0x1A3E JUMPI PUSH2 0x1A3E PUSH2 0x1ABC JUMP JUMPDEST POP MUL SWAP1 JUMP JUMPDEST PUSH1 0x0 DUP3 DUP3 LT ISZERO PUSH2 0x1A55 JUMPI PUSH2 0x1A55 PUSH2 0x1ABC JUMP JUMPDEST POP SUB SWAP1 JUMP JUMPDEST PUSH1 0x0 JUMPDEST DUP4 DUP2 LT ISZERO PUSH2 0x1A75 JUMPI DUP2 DUP2 ADD MLOAD DUP4 DUP3 ADD MSTORE PUSH1 0x20 ADD PUSH2 0x1A5D JUMP JUMPDEST DUP4 DUP2 GT ISZERO PUSH2 0x1A84 JUMPI PUSH1 0x0 DUP5 DUP5 ADD MSTORE JUMPDEST POP POP POP POP JUMP JUMPDEST PUSH1 0x0 DUP2 PUSH2 0x1A99 JUMPI PUSH2 0x1A99 PUSH2 0x1ABC JUMP JUMPDEST POP PUSH1 0x0 NOT ADD SWAP1 JUMP JUMPDEST PUSH1 0x0 PUSH1 0x0 NOT DUP3 EQ ISZERO PUSH2 0x1AB5 JUMPI PUSH2 0x1AB5 PUSH2 0x1ABC JUMP JUMPDEST POP PUSH1 0x1 ADD SWAP1 JUMP JUMPDEST PUSH4 0x4E487B71 PUSH1 0xE0 SHL PUSH1 0x0 MSTORE PUSH1 0x11 PUSH1 0x4 MSTORE PUSH1 0x24 PUSH1 0x0 REVERT JUMPDEST PUSH1 0x1 PUSH1 0x1 PUSH1 0xA0 SHL SUB DUP2 AND DUP2 EQ PUSH2 0x848 JUMPI PUSH1 0x0 DUP1 REVERT INVALID 0xEA RETURN SWAP11 0xB5 0xD2 0x4E MOD EXTCODECOPY ADD 0x4A 0xC6 0xAD 0xED DIV 0xBF ORIGIN 0x2D 0xEE 0xAB 0xAD PUSH5 0x37FA75FD10 REVERT 0xAA 0xB7 CALLVALUE 0x48 LOG4 LOG2 PUSH5 0x6970667358 0x22 SLT KECCAK256 0xD8 0xC2 0xB3 BALANCE 0xE0 PUSH15 0x5ED8526923C4EAB254FC8C2FAF8A09 0x26 SWAP13 MSIZE 0x4A EXTCODESIZE 0xAF 0xDD 0xC1 0xEA 0xA8 0xE0 PUSH5 0x736F6C6343 STOP ADDMOD DIV STOP CALLER "
		},
		"gasEstimates": {
			"creation": {
				"codeDepositCost": "1394600",
				"executionCost": "infinite",
				"totalCost": "infinite"
			},
			"external": {
				"DEFAULT_ADMIN_ROLE()": "262",
				"MARKETEER_ROLE()": "infinite",
				"addCategories(bytes32[])": "infinite",
				"addCategory(bytes32)": "infinite",
				"addMarketeer(address)": "infinite",
				"changeCollectionCategory(address,bytes32)": "infinite",
				"changeRegistrationFee(uint256)": "infinite",
				"getAllCategories()": "infinite",
				"getAllCategoryCollections(bytes32)": "infinite",
				"getCategory(uint256)": "infinite",
				"getCollectionCategory(address)": "1298",
				"getRoleAdmin(bytes32)": "1215",
				"getRoleMember(bytes32,uint256)": "infinite",
				"getRoleMemberCount(bytes32)": "infinite",
				"grantRole(bytes32,address)": "infinite",
				"hasRole(bytes32,address)": "1395",
				"hub()": "1083",
				"isMarketeer(address)": "infinite",
				"registerCollection(address,bytes32)": "infinite",
				"registrationFee()": "1086",
				"removeCategory(bytes32)": "infinite",
				"removeMarketeer(address)": "infinite",
				"renounceRole(bytes32,address)": "infinite",
				"revokeRole(bytes32,address)": "infinite",
				"setHubAddress(address)": "infinite",
				"supportsInterface(bytes4)": "infinite",
				"unregisterCollection(address)": "infinite",
				"withdraw()": "infinite"
			},
			"internal": {
				"_collectFee()": "infinite",
				"_registerCollection(address,bytes32)": "82961"
			}
		},
		"methodIdentifiers": {
			"DEFAULT_ADMIN_ROLE()": "a217fddf",
			"MARKETEER_ROLE()": "48b6912e",
			"addCategories(bytes32[])": "df393f32",
			"addCategory(bytes32)": "1a70b681",
			"addMarketeer(address)": "7470e999",
			"changeCollectionCategory(address,bytes32)": "8c8f735f",
			"changeRegistrationFee(uint256)": "50050769",
			"getAllCategories()": "dadd0a57",
			"getAllCategoryCollections(bytes32)": "781cc500",
			"getCategory(uint256)": "f3052d26",
			"getCollectionCategory(address)": "52f5d5d0",
			"getRoleAdmin(bytes32)": "248a9ca3",
			"getRoleMember(bytes32,uint256)": "9010d07c",
			"getRoleMemberCount(bytes32)": "ca15c873",
			"grantRole(bytes32,address)": "2f2ff15d",
			"hasRole(bytes32,address)": "91d14854",
			"hub()": "365a86fc",
			"isMarketeer(address)": "087d9208",
			"registerCollection(address,bytes32)": "b96c18e6",
			"registrationFee()": "14c44e09",
			"removeCategory(bytes32)": "8cc62ef7",
			"removeMarketeer(address)": "a7f1f768",
			"renounceRole(bytes32,address)": "36568abe",
			"revokeRole(bytes32,address)": "d547741f",
			"setHubAddress(address)": "c7eb4522",
			"supportsInterface(bytes4)": "01ffc9a7",
			"unregisterCollection(address)": "adee9abd",
			"withdraw()": "3ccfd60b"
		}
	},
	"abi": [
		{
			"inputs": [
				{
					"internalType": "address",
					"name": "_admin",
					"type": "address"
				},
				{
					"internalType": "address",
					"name": "_ctpcHub",
					"type": "address"
				}
			],
			"stateMutability": "nonpayable",
			"type": "constructor"
		},
		{
			"anonymous": false,
			"inputs": [
				{
					"indexed": true,
					"internalType": "bytes32",
					"name": "category",
					"type": "bytes32"
				}
			],
			"name": "CategoryAdded",
			"type": "event"
		},
		{
			"anonymous": false,
			"inputs": [
				{
					"indexed": false,
					"internalType": "bytes32[]",
					"name": "categoryBulk",
					"type": "bytes32[]"
				}
			],
			"name": "CategoryBulkAdded",
			"type": "event"
		},
		{
			"anonymous": false,
			"inputs": [
				{
					"indexed": true,
					"internalType": "bytes32",
					"name": "category",
					"type": "bytes32"
				}
			],
			"name": "CategoryRemoved",
			"type": "event"
		},
		{
			"anonymous": false,
			"inputs": [
				{
					"indexed": true,
					"internalType": "address",
					"name": "collection",
					"type": "address"
				},
				{
					"indexed": true,
					"internalType": "bytes32",
					"name": "oldCategory",
					"type": "bytes32"
				},
				{
					"indexed": true,
					"internalType": "bytes32",
					"name": "newCategory",
					"type": "bytes32"
				}
			],
			"name": "CollectionCategoryChanged",
			"type": "event"
		},
		{
			"anonymous": false,
			"inputs": [
				{
					"indexed": true,
					"internalType": "bytes32",
					"name": "category",
					"type": "bytes32"
				},
				{
					"indexed": false,
					"internalType": "address",
					"name": "collection",
					"type": "address"
				}
			],
			"name": "CollectionRegistered",
			"type": "event"
		},
		{
			"anonymous": false,
			"inputs": [
				{
					"indexed": false,
					"internalType": "address",
					"name": "collection",
					"type": "address"
				}
			],
			"name": "CollectionUnregistered",
			"type": "event"
		},
		{
			"anonymous": false,
			"inputs": [
				{
					"indexed": false,
					"internalType": "address",
					"name": "newHubAddress",
					"type": "address"
				}
			],
			"name": "HubAddressModified",
			"type": "event"
		},
		{
			"anonymous": false,
			"inputs": [
				{
					"indexed": false,
					"internalType": "uint256",
					"name": "newValue",
					"type": "uint256"
				}
			],
			"name": "RegistrationFeeChanged",
			"type": "event"
		},
		{
			"anonymous": false,
			"inputs": [
				{
					"indexed": true,
					"internalType": "bytes32",
					"name": "role",
					"type": "bytes32"
				},
				{
					"indexed": true,
					"internalType": "bytes32",
					"name": "previousAdminRole",
					"type": "bytes32"
				},
				{
					"indexed": true,
					"internalType": "bytes32",
					"name": "newAdminRole",
					"type": "bytes32"
				}
			],
			"name": "RoleAdminChanged",
			"type": "event"
		},
		{
			"anonymous": false,
			"inputs": [
				{
					"indexed": true,
					"internalType": "bytes32",
					"name": "role",
					"type": "bytes32"
				},
				{
					"indexed": true,
					"internalType": "address",
					"name": "account",
					"type": "address"
				},
				{
					"indexed": true,
					"internalType": "address",
					"name": "sender",
					"type": "address"
				}
			],
			"name": "RoleGranted",
			"type": "event"
		},
		{
			"anonymous": false,
			"inputs": [
				{
					"indexed": true,
					"internalType": "bytes32",
					"name": "role",
					"type": "bytes32"
				},
				{
					"indexed": true,
					"internalType": "address",
					"name": "account",
					"type": "address"
				},
				{
					"indexed": true,
					"internalType": "address",
					"name": "sender",
					"type": "address"
				}
			],
			"name": "RoleRevoked",
			"type": "event"
		},
		{
			"anonymous": false,
			"inputs": [
				{
					"indexed": true,
					"internalType": "address",
					"name": "admin",
					"type": "address"
				},
				{
					"indexed": false,
					"internalType": "uint256",
					"name": "amount",
					"type": "uint256"
				}
			],
			"name": "Withdrawal",
			"type": "event"
		},
		{
			"inputs": [],
			"name": "DEFAULT_ADMIN_ROLE",
			"outputs": [
				{
					"internalType": "bytes32",
					"name": "",
					"type": "bytes32"
				}
			],
			"stateMutability": "view",
			"type": "function"
		},
		{
			"inputs": [],
			"name": "MARKETEER_ROLE",
			"outputs": [
				{
					"internalType": "bytes32",
					"name": "",
					"type": "bytes32"
				}
			],
			"stateMutability": "view",
			"type": "function"
		},
		{
			"inputs": [
				{
					"internalType": "bytes32[]",
					"name": "_categories",
					"type": "bytes32[]"
				}
			],
			"name": "addCategories",
			"outputs": [],
			"stateMutability": "nonpayable",
			"type": "function"
		},
		{
			"inputs": [
				{
					"internalType": "bytes32",
					"name": "_category",
					"type": "bytes32"
				}
			],
			"name": "addCategory",
			"outputs": [],
			"stateMutability": "nonpayable",
			"type": "function"
		},
		{
			"inputs": [
				{
					"internalType": "address",
					"name": "_marketeer",
					"type": "address"
				}
			],
			"name": "addMarketeer",
			"outputs": [],
			"stateMutability": "nonpayable",
			"type": "function"
		},
		{
			"inputs": [
				{
					"internalType": "address",
					"name": "_collection",
					"type": "address"
				},
				{
					"internalType": "bytes32",
					"name": "_newCategory",
					"type": "bytes32"
				}
			],
			"name": "changeCollectionCategory",
			"outputs": [],
			"stateMutability": "nonpayable",
			"type": "function"
		},
		{
			"inputs": [
				{
					"internalType": "uint256",
					"name": "newValue",
					"type": "uint256"
				}
			],
			"name": "changeRegistrationFee",
			"outputs": [],
			"stateMutability": "nonpayable",
			"type": "function"
		},
		{
			"inputs": [],
			"name": "getAllCategories",
			"outputs": [
				{
					"internalType": "bytes32[]",
					"name": "",
					"type": "bytes32[]"
				}
			],
			"stateMutability": "view",
			"type": "function"
		},
		{
			"inputs": [
				{
					"internalType": "bytes32",
					"name": "category",
					"type": "bytes32"
				}
			],
			"name": "getAllCategoryCollections",
			"outputs": [
				{
					"internalType": "address[]",
					"name": "",
					"type": "address[]"
				}
			],
			"stateMutability": "view",
			"type": "function"
		},
		{
			"inputs": [
				{
					"internalType": "uint256",
					"name": "index",
					"type": "uint256"
				}
			],
			"name": "getCategory",
			"outputs": [
				{
					"internalType": "bytes32",
					"name": "",
					"type": "bytes32"
				}
			],
			"stateMutability": "view",
			"type": "function"
		},
		{
			"inputs": [
				{
					"internalType": "address",
					"name": "collection",
					"type": "address"
				}
			],
			"name": "getCollectionCategory",
			"outputs": [
				{
					"internalType": "bytes32",
					"name": "",
					"type": "bytes32"
				}
			],
			"stateMutability": "view",
			"type": "function"
		},
		{
			"inputs": [
				{
					"internalType": "bytes32",
					"name": "role",
					"type": "bytes32"
				}
			],
			"name": "getRoleAdmin",
			"outputs": [
				{
					"internalType": "bytes32",
					"name": "",
					"type": "bytes32"
				}
			],
			"stateMutability": "view",
			"type": "function"
		},
		{
			"inputs": [
				{
					"internalType": "bytes32",
					"name": "role",
					"type": "bytes32"
				},
				{
					"internalType": "uint256",
					"name": "index",
					"type": "uint256"
				}
			],
			"name": "getRoleMember",
			"outputs": [
				{
					"internalType": "address",
					"name": "",
					"type": "address"
				}
			],
			"stateMutability": "view",
			"type": "function"
		},
		{
			"inputs": [
				{
					"internalType": "bytes32",
					"name": "role",
					"type": "bytes32"
				}
			],
			"name": "getRoleMemberCount",
			"outputs": [
				{
					"internalType": "uint256",
					"name": "",
					"type": "uint256"
				}
			],
			"stateMutability": "view",
			"type": "function"
		},
		{
			"inputs": [
				{
					"internalType": "bytes32",
					"name": "role",
					"type": "bytes32"
				},
				{
					"internalType": "address",
					"name": "account",
					"type": "address"
				}
			],
			"name": "grantRole",
			"outputs": [],
			"stateMutability": "nonpayable",
			"type": "function"
		},
		{
			"inputs": [
				{
					"internalType": "bytes32",
					"name": "role",
					"type": "bytes32"
				},
				{
					"internalType": "address",
					"name": "account",
					"type": "address"
				}
			],
			"name": "hasRole",
			"outputs": [
				{
					"internalType": "bool",
					"name": "",
					"type": "bool"
				}
			],
			"stateMutability": "view",
			"type": "function"
		},
		{
			"inputs": [],
			"name": "hub",
			"outputs": [
				{
					"internalType": "contract CptcHub",
					"name": "",
					"type": "address"
				}
			],
			"stateMutability": "view",
			"type": "function"
		},
		{
			"inputs": [
				{
					"internalType": "address",
					"name": "_addr",
					"type": "address"
				}
			],
			"name": "isMarketeer",
			"outputs": [
				{
					"internalType": "bool",
					"name": "",
					"type": "bool"
				}
			],
			"stateMutability": "view",
			"type": "function"
		},
		{
			"inputs": [
				{
					"internalType": "address",
					"name": "_collection",
					"type": "address"
				},
				{
					"internalType": "bytes32",
					"name": "_category",
					"type": "bytes32"
				}
			],
			"name": "registerCollection",
			"outputs": [],
			"stateMutability": "nonpayable",
			"type": "function"
		},
		{
			"inputs": [],
			"name": "registrationFee",
			"outputs": [
				{
					"internalType": "uint256",
					"name": "",
					"type": "uint256"
				}
			],
			"stateMutability": "view",
			"type": "function"
		},
		{
			"inputs": [
				{
					"internalType": "bytes32",
					"name": "_category",
					"type": "bytes32"
				}
			],
			"name": "removeCategory",
			"outputs": [],
			"stateMutability": "nonpayable",
			"type": "function"
		},
		{
			"inputs": [
				{
					"internalType": "address",
					"name": "_marketeer",
					"type": "address"
				}
			],
			"name": "removeMarketeer",
			"outputs": [],
			"stateMutability": "nonpayable",
			"type": "function"
		},
		{
			"inputs": [
				{
					"internalType": "bytes32",
					"name": "role",
					"type": "bytes32"
				},
				{
					"internalType": "address",
					"name": "account",
					"type": "address"
				}
			],
			"name": "renounceRole",
			"outputs": [],
			"stateMutability": "nonpayable",
			"type": "function"
		},
		{
			"inputs": [
				{
					"internalType": "bytes32",
					"name": "role",
					"type": "bytes32"
				},
				{
					"internalType": "address",
					"name": "account",
					"type": "address"
				}
			],
			"name": "revokeRole",
			"outputs": [],
			"stateMutability": "nonpayable",
			"type": "function"
		},
		{
			"inputs": [
				{
					"internalType": "address",
					"name": "newHubAddress",
					"type": "address"
				}
			],
			"name": "setHubAddress",
			"outputs": [],
			"stateMutability": "nonpayable",
			"type": "function"
		},
		{
			"inputs": [
				{
					"internalType": "bytes4",
					"name": "interfaceId",
					"type": "bytes4"
				}
			],
			"name": "supportsInterface",
			"outputs": [
				{
					"internalType": "bool",
					"name": "",
					"type": "bool"
				}
			],
			"stateMutability": "view",
			"type": "function"
		},
		{
			"inputs": [
				{
					"internalType": "address",
					"name": "_collection",
					"type": "address"
				}
			],
			"name": "unregisterCollection",
			"outputs": [],
			"stateMutability": "nonpayable",
			"type": "function"
		},
		{
			"inputs": [],
			"name": "withdraw",
			"outputs": [],
			"stateMutability": "nonpayable",
			"type": "function"
		}
	]
}